{
  "address": "0xF44242616C2C530679c59f89591fF756281c6BaF",
  "abi": [
    {
      "inputs": [
        {
          "internalType": "address",
          "name": "initialOwner",
          "type": "address"
        }
      ],
      "stateMutability": "nonpayable",
      "type": "constructor"
    },
    {
      "inputs": [],
      "name": "AccessControlBadConfirmation",
      "type": "error"
    },
    {
      "inputs": [
        {
          "internalType": "address",
          "name": "account",
          "type": "address"
        },
        {
          "internalType": "bytes32",
          "name": "neededRole",
          "type": "bytes32"
        }
      ],
      "name": "AccessControlUnauthorizedAccount",
      "type": "error"
    },
    {
      "inputs": [],
      "name": "ERC721EnumerableForbiddenBatchMint",
      "type": "error"
    },
    {
      "inputs": [
        {
          "internalType": "address",
          "name": "sender",
          "type": "address"
        },
        {
          "internalType": "uint256",
          "name": "tokenId",
          "type": "uint256"
        },
        {
          "internalType": "address",
          "name": "owner",
          "type": "address"
        }
      ],
      "name": "ERC721IncorrectOwner",
      "type": "error"
    },
    {
      "inputs": [
        {
          "internalType": "address",
          "name": "operator",
          "type": "address"
        },
        {
          "internalType": "uint256",
          "name": "tokenId",
          "type": "uint256"
        }
      ],
      "name": "ERC721InsufficientApproval",
      "type": "error"
    },
    {
      "inputs": [
        {
          "internalType": "address",
          "name": "approver",
          "type": "address"
        }
      ],
      "name": "ERC721InvalidApprover",
      "type": "error"
    },
    {
      "inputs": [
        {
          "internalType": "address",
          "name": "operator",
          "type": "address"
        }
      ],
      "name": "ERC721InvalidOperator",
      "type": "error"
    },
    {
      "inputs": [
        {
          "internalType": "address",
          "name": "owner",
          "type": "address"
        }
      ],
      "name": "ERC721InvalidOwner",
      "type": "error"
    },
    {
      "inputs": [
        {
          "internalType": "address",
          "name": "receiver",
          "type": "address"
        }
      ],
      "name": "ERC721InvalidReceiver",
      "type": "error"
    },
    {
      "inputs": [
        {
          "internalType": "address",
          "name": "sender",
          "type": "address"
        }
      ],
      "name": "ERC721InvalidSender",
      "type": "error"
    },
    {
      "inputs": [
        {
          "internalType": "uint256",
          "name": "tokenId",
          "type": "uint256"
        }
      ],
      "name": "ERC721NonexistentToken",
      "type": "error"
    },
    {
      "inputs": [
        {
          "internalType": "address",
          "name": "owner",
          "type": "address"
        },
        {
          "internalType": "uint256",
          "name": "index",
          "type": "uint256"
        }
      ],
      "name": "ERC721OutOfBoundsIndex",
      "type": "error"
    },
    {
      "anonymous": false,
      "inputs": [
        {
          "indexed": false,
          "internalType": "uint256",
          "name": "tokenId",
          "type": "uint256"
        },
        {
          "indexed": false,
          "internalType": "uint256",
          "name": "amount",
          "type": "uint256"
        }
      ],
      "name": "AmountRaised",
      "type": "event"
    },
    {
      "anonymous": false,
      "inputs": [
        {
          "indexed": true,
          "internalType": "address",
          "name": "owner",
          "type": "address"
        },
        {
          "indexed": true,
          "internalType": "address",
          "name": "approved",
          "type": "address"
        },
        {
          "indexed": true,
          "internalType": "uint256",
          "name": "tokenId",
          "type": "uint256"
        }
      ],
      "name": "Approval",
      "type": "event"
    },
    {
      "anonymous": false,
      "inputs": [
        {
          "indexed": true,
          "internalType": "address",
          "name": "owner",
          "type": "address"
        },
        {
          "indexed": true,
          "internalType": "address",
          "name": "operator",
          "type": "address"
        },
        {
          "indexed": false,
          "internalType": "bool",
          "name": "approved",
          "type": "bool"
        }
      ],
      "name": "ApprovalForAll",
      "type": "event"
    },
    {
      "anonymous": false,
      "inputs": [
        {
          "indexed": false,
          "internalType": "uint256",
          "name": "_fromTokenId",
          "type": "uint256"
        },
        {
          "indexed": false,
          "internalType": "uint256",
          "name": "_toTokenId",
          "type": "uint256"
        }
      ],
      "name": "BatchMetadataUpdate",
      "type": "event"
    },
    {
      "anonymous": false,
      "inputs": [
        {
          "indexed": false,
          "internalType": "uint256",
          "name": "tokenId",
          "type": "uint256"
        },
        {
          "indexed": false,
          "internalType": "address",
          "name": "fundraiser",
          "type": "address"
        },
        {
          "indexed": false,
          "internalType": "uint256",
          "name": "amountNeeded",
          "type": "uint256"
        }
      ],
      "name": "CauseMinted",
      "type": "event"
    },
    {
      "anonymous": false,
      "inputs": [
        {
          "indexed": false,
          "internalType": "uint256",
          "name": "tokenId",
          "type": "uint256"
        },
        {
          "indexed": false,
          "internalType": "bool",
          "name": "isActive",
          "type": "bool"
        }
      ],
      "name": "CauseStateToggled",
      "type": "event"
    },
    {
      "anonymous": false,
      "inputs": [
        {
          "indexed": false,
          "internalType": "uint256",
          "name": "_tokenId",
          "type": "uint256"
        }
      ],
      "name": "MetadataUpdate",
      "type": "event"
    },
    {
      "anonymous": false,
      "inputs": [
        {
          "indexed": false,
          "internalType": "address",
          "name": "newOwner",
          "type": "address"
        }
      ],
      "name": "OwnershipChanged",
      "type": "event"
    },
    {
      "anonymous": false,
      "inputs": [
        {
          "indexed": true,
          "internalType": "bytes32",
          "name": "role",
          "type": "bytes32"
        },
        {
          "indexed": true,
          "internalType": "bytes32",
          "name": "previousAdminRole",
          "type": "bytes32"
        },
        {
          "indexed": true,
          "internalType": "bytes32",
          "name": "newAdminRole",
          "type": "bytes32"
        }
      ],
      "name": "RoleAdminChanged",
      "type": "event"
    },
    {
      "anonymous": false,
      "inputs": [
        {
          "indexed": true,
          "internalType": "bytes32",
          "name": "role",
          "type": "bytes32"
        },
        {
          "indexed": true,
          "internalType": "address",
          "name": "account",
          "type": "address"
        },
        {
          "indexed": true,
          "internalType": "address",
          "name": "sender",
          "type": "address"
        }
      ],
      "name": "RoleGranted",
      "type": "event"
    },
    {
      "anonymous": false,
      "inputs": [
        {
          "indexed": true,
          "internalType": "bytes32",
          "name": "role",
          "type": "bytes32"
        },
        {
          "indexed": true,
          "internalType": "address",
          "name": "account",
          "type": "address"
        },
        {
          "indexed": true,
          "internalType": "address",
          "name": "sender",
          "type": "address"
        }
      ],
      "name": "RoleRevoked",
      "type": "event"
    },
    {
      "anonymous": false,
      "inputs": [
        {
          "indexed": true,
          "internalType": "address",
          "name": "from",
          "type": "address"
        },
        {
          "indexed": true,
          "internalType": "address",
          "name": "to",
          "type": "address"
        },
        {
          "indexed": true,
          "internalType": "uint256",
          "name": "tokenId",
          "type": "uint256"
        }
      ],
      "name": "Transfer",
      "type": "event"
    },
    {
      "inputs": [],
      "name": "DEFAULT_ADMIN_ROLE",
      "outputs": [
        {
          "internalType": "bytes32",
          "name": "",
          "type": "bytes32"
        }
      ],
      "stateMutability": "view",
      "type": "function"
    },
    {
      "inputs": [],
      "name": "GIVVEST_ROLE",
      "outputs": [
        {
          "internalType": "bytes32",
          "name": "",
          "type": "bytes32"
        }
      ],
      "stateMutability": "view",
      "type": "function"
    },
    {
      "inputs": [],
      "name": "MINTER_ROLE",
      "outputs": [
        {
          "internalType": "bytes32",
          "name": "",
          "type": "bytes32"
        }
      ],
      "stateMutability": "view",
      "type": "function"
    },
    {
      "inputs": [
        {
          "internalType": "address",
          "name": "to",
          "type": "address"
        },
        {
          "internalType": "uint256",
          "name": "tokenId",
          "type": "uint256"
        }
      ],
      "name": "approve",
      "outputs": [],
      "stateMutability": "nonpayable",
      "type": "function"
    },
    {
      "inputs": [
        {
          "internalType": "address",
          "name": "owner",
          "type": "address"
        }
      ],
      "name": "balanceOf",
      "outputs": [
        {
          "internalType": "uint256",
          "name": "",
          "type": "uint256"
        }
      ],
      "stateMutability": "view",
      "type": "function"
    },
    {
      "inputs": [
        {
          "internalType": "uint256",
          "name": "tokenId",
          "type": "uint256"
        }
      ],
      "name": "burn",
      "outputs": [],
      "stateMutability": "nonpayable",
      "type": "function"
    },
    {
      "inputs": [
        {
          "internalType": "uint256",
          "name": "",
          "type": "uint256"
        }
      ],
      "name": "causes",
      "outputs": [
        {
          "internalType": "address",
          "name": "fundraiser",
          "type": "address"
        },
        {
          "internalType": "uint256",
          "name": "amountNeeded",
          "type": "uint256"
        },
        {
          "internalType": "uint256",
          "name": "amountRaised",
          "type": "uint256"
        },
        {
          "internalType": "bool",
          "name": "isActive",
          "type": "bool"
        }
      ],
      "stateMutability": "view",
      "type": "function"
    },
    {
      "inputs": [
        {
          "internalType": "address",
          "name": "to",
          "type": "address"
        }
      ],
      "name": "changeOwnership",
      "outputs": [],
      "stateMutability": "nonpayable",
      "type": "function"
    },
    {
      "inputs": [
        {
          "internalType": "uint256",
          "name": "tokenId",
          "type": "uint256"
        }
      ],
      "name": "getApproved",
      "outputs": [
        {
          "internalType": "address",
          "name": "",
          "type": "address"
        }
      ],
      "stateMutability": "view",
      "type": "function"
    },
    {
      "inputs": [
        {
          "internalType": "uint256",
          "name": "tokenId",
          "type": "uint256"
        }
      ],
      "name": "getFundraiser",
      "outputs": [
        {
          "internalType": "address",
          "name": "",
          "type": "address"
        }
      ],
      "stateMutability": "view",
      "type": "function"
    },
    {
      "inputs": [
        {
          "internalType": "bytes32",
          "name": "role",
          "type": "bytes32"
        }
      ],
      "name": "getRoleAdmin",
      "outputs": [
        {
          "internalType": "bytes32",
          "name": "",
          "type": "bytes32"
        }
      ],
      "stateMutability": "view",
      "type": "function"
    },
    {
      "inputs": [
        {
          "internalType": "address",
          "name": "givvestContract",
          "type": "address"
        }
      ],
      "name": "grantGivvestRole",
      "outputs": [],
      "stateMutability": "nonpayable",
      "type": "function"
    },
    {
      "inputs": [
        {
          "internalType": "address",
          "name": "minter",
          "type": "address"
        }
      ],
      "name": "grantMinterRole",
      "outputs": [],
      "stateMutability": "nonpayable",
      "type": "function"
    },
    {
      "inputs": [
        {
          "internalType": "bytes32",
          "name": "role",
          "type": "bytes32"
        },
        {
          "internalType": "address",
          "name": "account",
          "type": "address"
        }
      ],
      "name": "grantRole",
      "outputs": [],
      "stateMutability": "nonpayable",
      "type": "function"
    },
    {
      "inputs": [
        {
          "internalType": "bytes32",
          "name": "role",
          "type": "bytes32"
        },
        {
          "internalType": "address",
          "name": "account",
          "type": "address"
        }
      ],
      "name": "hasRole",
      "outputs": [
        {
          "internalType": "bool",
          "name": "",
          "type": "bool"
        }
      ],
      "stateMutability": "view",
      "type": "function"
    },
    {
      "inputs": [
        {
          "internalType": "address",
          "name": "owner",
          "type": "address"
        },
        {
          "internalType": "address",
          "name": "operator",
          "type": "address"
        }
      ],
      "name": "isApprovedForAll",
      "outputs": [
        {
          "internalType": "bool",
          "name": "",
          "type": "bool"
        }
      ],
      "stateMutability": "view",
      "type": "function"
    },
    {
      "inputs": [],
      "name": "name",
      "outputs": [
        {
          "internalType": "string",
          "name": "",
          "type": "string"
        }
      ],
      "stateMutability": "view",
      "type": "function"
    },
    {
      "inputs": [
        {
          "internalType": "uint256",
          "name": "tokenId",
          "type": "uint256"
        }
      ],
      "name": "ownerOf",
      "outputs": [
        {
          "internalType": "address",
          "name": "",
          "type": "address"
        }
      ],
      "stateMutability": "view",
      "type": "function"
    },
    {
      "inputs": [
        {
          "internalType": "uint256",
          "name": "tokenId",
          "type": "uint256"
        },
        {
          "internalType": "uint256",
          "name": "amount",
          "type": "uint256"
        }
      ],
      "name": "raiseAmount",
      "outputs": [],
      "stateMutability": "nonpayable",
      "type": "function"
    },
    {
      "inputs": [
        {
          "internalType": "bytes32",
          "name": "role",
          "type": "bytes32"
        },
        {
          "internalType": "address",
          "name": "callerConfirmation",
          "type": "address"
        }
      ],
      "name": "renounceRole",
      "outputs": [],
      "stateMutability": "nonpayable",
      "type": "function"
    },
    {
      "inputs": [
        {
          "internalType": "bytes32",
          "name": "role",
          "type": "bytes32"
        },
        {
          "internalType": "address",
          "name": "account",
          "type": "address"
        }
      ],
      "name": "revokeRole",
      "outputs": [],
      "stateMutability": "nonpayable",
      "type": "function"
    },
    {
      "inputs": [
        {
          "internalType": "string",
          "name": "uri",
          "type": "string"
        },
        {
          "internalType": "address",
          "name": "fundraiser",
          "type": "address"
        },
        {
          "internalType": "uint256",
          "name": "amountNeeded",
          "type": "uint256"
        }
      ],
      "name": "safeMint",
      "outputs": [],
      "stateMutability": "nonpayable",
      "type": "function"
    },
    {
      "inputs": [
        {
          "internalType": "address",
          "name": "from",
          "type": "address"
        },
        {
          "internalType": "address",
          "name": "to",
          "type": "address"
        },
        {
          "internalType": "uint256",
          "name": "tokenId",
          "type": "uint256"
        }
      ],
      "name": "safeTransferFrom",
      "outputs": [],
      "stateMutability": "nonpayable",
      "type": "function"
    },
    {
      "inputs": [
        {
          "internalType": "address",
          "name": "from",
          "type": "address"
        },
        {
          "internalType": "address",
          "name": "to",
          "type": "address"
        },
        {
          "internalType": "uint256",
          "name": "tokenId",
          "type": "uint256"
        },
        {
          "internalType": "bytes",
          "name": "data",
          "type": "bytes"
        }
      ],
      "name": "safeTransferFrom",
      "outputs": [],
      "stateMutability": "nonpayable",
      "type": "function"
    },
    {
      "inputs": [
        {
          "internalType": "address",
          "name": "operator",
          "type": "address"
        },
        {
          "internalType": "bool",
          "name": "approved",
          "type": "bool"
        }
      ],
      "name": "setApprovalForAll",
      "outputs": [],
      "stateMutability": "nonpayable",
      "type": "function"
    },
    {
      "inputs": [
        {
          "internalType": "bytes4",
          "name": "interfaceId",
          "type": "bytes4"
        }
      ],
      "name": "supportsInterface",
      "outputs": [
        {
          "internalType": "bool",
          "name": "",
          "type": "bool"
        }
      ],
      "stateMutability": "view",
      "type": "function"
    },
    {
      "inputs": [],
      "name": "symbol",
      "outputs": [
        {
          "internalType": "string",
          "name": "",
          "type": "string"
        }
      ],
      "stateMutability": "view",
      "type": "function"
    },
    {
      "inputs": [
        {
          "internalType": "uint256",
          "name": "tokenId",
          "type": "uint256"
        }
      ],
      "name": "toggleCauseState",
      "outputs": [],
      "stateMutability": "nonpayable",
      "type": "function"
    },
    {
      "inputs": [
        {
          "internalType": "uint256",
          "name": "index",
          "type": "uint256"
        }
      ],
      "name": "tokenByIndex",
      "outputs": [
        {
          "internalType": "uint256",
          "name": "",
          "type": "uint256"
        }
      ],
      "stateMutability": "view",
      "type": "function"
    },
    {
      "inputs": [],
      "name": "tokenCount",
      "outputs": [
        {
          "internalType": "uint256",
          "name": "",
          "type": "uint256"
        }
      ],
      "stateMutability": "view",
      "type": "function"
    },
    {
      "inputs": [
        {
          "internalType": "address",
          "name": "owner",
          "type": "address"
        },
        {
          "internalType": "uint256",
          "name": "index",
          "type": "uint256"
        }
      ],
      "name": "tokenOfOwnerByIndex",
      "outputs": [
        {
          "internalType": "uint256",
          "name": "",
          "type": "uint256"
        }
      ],
      "stateMutability": "view",
      "type": "function"
    },
    {
      "inputs": [
        {
          "internalType": "uint256",
          "name": "tokenId",
          "type": "uint256"
        }
      ],
      "name": "tokenURI",
      "outputs": [
        {
          "internalType": "string",
          "name": "",
          "type": "string"
        }
      ],
      "stateMutability": "view",
      "type": "function"
    },
    {
      "inputs": [],
      "name": "totalSupply",
      "outputs": [
        {
          "internalType": "uint256",
          "name": "",
          "type": "uint256"
        }
      ],
      "stateMutability": "view",
      "type": "function"
    },
    {
      "inputs": [
        {
          "internalType": "address",
          "name": "from",
          "type": "address"
        },
        {
          "internalType": "address",
          "name": "to",
          "type": "address"
        },
        {
          "internalType": "uint256",
          "name": "tokenId",
          "type": "uint256"
        }
      ],
      "name": "transferFrom",
      "outputs": [],
      "stateMutability": "nonpayable",
      "type": "function"
    }
  ],
  "transactionHash": "0x9d9f7e858f7bce039bc241689f06adaabcd9a69dfa24e8457da1699d15ea4cd6",
  "args": [
    "0xF68B75C16B140EF5258132999E2B9692ECbcf819"
  ],
  "numDeployments": 1,
  "solcInputHash": "fc8fb5549556d6cbfe770c8385c3b753",
  "bytecode": "0x60806040523480156200001157600080fd5b506040516200245038038062002450833981016040819052620000349162000190565b6040518060400160405280600c81526020016b47697676657374436175736560a01b8152506040518060400160405280600481526020016347434f5360e01b815250816000908162000087919062000267565b50600162000096828262000267565b50620000a891506000905082620000dd565b50620000d57f9f2df0fed2c77648de5860a4cc508cd0818c85b8b8a1ab4ceeef8d981c8956a682620000dd565b505062000333565b6000828152600b602090815260408083206001600160a01b038516845290915281205460ff1662000186576000838152600b602090815260408083206001600160a01b03861684529091529020805460ff191660011790556200013d3390565b6001600160a01b0316826001600160a01b0316847f2f8788117e7eff1d82e926ec794901d17c78024a50270940304540a733656f0d60405160405180910390a45060016200018a565b5060005b92915050565b600060208284031215620001a357600080fd5b81516001600160a01b0381168114620001bb57600080fd5b9392505050565b634e487b7160e01b600052604160045260246000fd5b600181811c90821680620001ed57607f821691505b6020821081036200020e57634e487b7160e01b600052602260045260246000fd5b50919050565b601f8211156200026257600081815260208120601f850160051c810160208610156200023d5750805b601f850160051c820191505b818110156200025e5782815560010162000249565b5050505b505050565b81516001600160401b03811115620002835762000283620001c2565b6200029b81620002948454620001d8565b8462000214565b602080601f831160018114620002d35760008415620002ba5750858301515b600019600386901b1c1916600185901b1785556200025e565b600085815260208120601f198616915b828110156200030457888601518255948401946001909101908401620002e3565b5085821015620003235787850151600019600388901b60f8161c191681555b5050505050600190811b01905550565b61210d80620003436000396000f3fe608060405234801561001057600080fd5b50600436106102055760003560e01c80636352211e1161011a578063a22cb465116100ad578063c87b56dd1161007c578063c87b56dd146104c2578063d3cda9e7146104d5578063d5391393146104fc578063d547741f14610523578063e985e9c51461053657600080fd5b8063a22cb46514610460578063a820009814610473578063b88d4fde1461049c578063c3d489cb146104af57600080fd5b80639c3ae789116100e95780639c3ae789146104295780639c6bb72d1461043c5780639f181b5e1461044f578063a217fddf1461045857600080fd5b80636352211e146103e857806370a08231146103fb57806391d148541461040e57806395d89b411461042157600080fd5b80632af4c31e1161019d5780633dd1eb611161016c5780633dd1eb611461032e57806342842e0e1461034157806342966c68146103545780634f6ccce714610367578063538a942a1461037a57600080fd5b80632af4c31e146102e25780632f2ff15d146102f55780632f745c591461030857806336568abe1461031b57600080fd5b8063095ea7b3116101d9578063095ea7b31461028757806318160ddd1461029a57806323b872dd146102ac578063248a9ca3146102bf57600080fd5b8062e585c21461020a57806301ffc9a71461021f57806306fdde0314610247578063081812fc1461025c575b600080fd5b61021d610218366004611bd2565b610549565b005b61023261022d366004611c53565b610713565b60405190151581526020015b60405180910390f35b61024f610724565b60405161023e9190611cc0565b61026f61026a366004611cd3565b6107b6565b6040516001600160a01b03909116815260200161023e565b61021d610295366004611cec565b6107df565b6008545b60405190815260200161023e565b61021d6102ba366004611d16565b6107ee565b61029e6102cd366004611cd3565b6000908152600b602052604090206001015490565b61021d6102f0366004611d42565b610879565b61021d610303366004611d5d565b6108dd565b61029e610316366004611cec565b610902565b61021d610329366004611d5d565b610967565b61021d61033c366004611d42565b61099f565b61021d61034f366004611d16565b6109d4565b61021d610362366004611cd3565b6109ef565b61029e610375366004611cd3565b6109fb565b6103bc610388366004611cd3565b600d6020526000908152604090208054600182015460028301546003909301546001600160a01b0390921692909160ff1684565b604080516001600160a01b0390951685526020850193909352918301521515606082015260800161023e565b61026f6103f6366004611cd3565b610a54565b61029e610409366004611d42565b610a5f565b61023261041c366004611d5d565b610aa7565b61024f610ad2565b61021d610437366004611cd3565b610ae1565b61021d61044a366004611d89565b610c00565b61029e600c5481565b61029e600081565b61021d61046e366004611dab565b610d6d565b61026f610481366004611cd3565b6000908152600d60205260409020546001600160a01b031690565b61021d6104aa366004611de7565b610d78565b61021d6104bd366004611d42565b610d90565b61024f6104d0366004611cd3565b610dc5565b61029e7f3673a21ab9497b77b766bf91889841908ddc73b6a50d4793d6c584a3b8a4bfb181565b61029e7f9f2df0fed2c77648de5860a4cc508cd0818c85b8b8a1ab4ceeef8d981c8956a681565b61021d610531366004611d5d565b610dd0565b610232610544366004611e63565b610df5565b7f9f2df0fed2c77648de5860a4cc508cd0818c85b8b8a1ab4ceeef8d981c8956a661057381610e23565b600082116105d85760405162461bcd60e51b815260206004820152602760248201527f416d6f756e74206e6565646564206d7573742062652067726561746572207468604482015266616e207a65726f60c81b60648201526084015b60405180910390fd5b6001600160a01b03831661062e5760405162461bcd60e51b815260206004820152601a60248201527f496e76616c69642066756e64726169736572206164647265737300000000000060448201526064016105cf565b600c80546000918261063f83611ea3565b91905055905061064f3382610e30565b6106598186610e4a565b604080516080810182526001600160a01b0386811680835260208084018881526000858701818152600160608089018281528b8552600d8752938a9020985189546001600160a01b031916981697909717885592519287019290925590516002860155516003909401805460ff1916941515949094179093558351858152928301529181018590527f1080047a8706bcacaf766b2e21e16da56bfc2feddac6baa14312f87ce8c0d010910160405180910390a15050505050565b600061071e82610e93565b92915050565b60606000805461073390611ebc565b80601f016020809104026020016040519081016040528092919081815260200182805461075f90611ebc565b80156107ac5780601f10610781576101008083540402835291602001916107ac565b820191906000526020600020905b81548152906001019060200180831161078f57829003601f168201915b5050505050905090565b60006107c182610eb8565b506000828152600460205260409020546001600160a01b031661071e565b6107ea828233610ef1565b5050565b6001600160a01b03821661081857604051633250574960e11b8152600060048201526024016105cf565b6000610825838333610efe565b9050836001600160a01b0316816001600160a01b031614610873576040516364283d7b60e01b81526001600160a01b03808616600483015260248201849052821660448201526064016105cf565b50505050565b600061088481610e23565b61088f600083610f13565b5061089b600033610fa7565b506040516001600160a01b03831681527f595ee9ffef04d4d652b768860c56905a48f5ab79124bb3b2279df1885536991d906020015b60405180910390a15050565b6000828152600b60205260409020600101546108f881610e23565b6108738383610f13565b600061090d83610a5f565b821061093e5760405163295f44f760e21b81526001600160a01b0384166004820152602481018390526044016105cf565b506001600160a01b03919091166000908152600660209081526040808320938352929052205490565b6001600160a01b03811633146109905760405163334bd91960e11b815260040160405180910390fd5b61099a8282610fa7565b505050565b60006109aa81610e23565b61099a7f9f2df0fed2c77648de5860a4cc508cd0818c85b8b8a1ab4ceeef8d981c8956a683610f13565b61099a83838360405180602001604052806000815250610d78565b6107ea60008233610efe565b6000610a0660085490565b8210610a2f5760405163295f44f760e21b815260006004820152602481018390526044016105cf565b60088281548110610a4257610a42611ef6565b90600052602060002001549050919050565b600061071e82610eb8565b60006001600160a01b038216610a8b576040516322718ad960e21b8152600060048201526024016105cf565b506001600160a01b031660009081526003602052604090205490565b6000918252600b602090815260408084206001600160a01b0393909316845291905290205460ff1690565b60606001805461073390611ebc565b6000818152600d60205260409020600381015460ff1680610b09575080600101548160020154105b610b555760405162461bcd60e51b815260206004820152601f60248201527f46756e6472616973696e6720697320616c726561647920636f6d706c6574650060448201526064016105cf565b80546001600160a01b0316331480610b735750610b73600033610aa7565b610baf5760405162461bcd60e51b815260206004820152600d60248201526c139bdd081c195c9b5a5d1d1959609a1b60448201526064016105cf565b60038101805460ff8082161560ff1990921682179092556040805185815291909216151560208201527f8958b38508babf606844207948f2f92cc1ccccbe27f0fcbaac9eddcc7201e2c291016108d1565b7f3673a21ab9497b77b766bf91889841908ddc73b6a50d4793d6c584a3b8a4bfb1610c2a81610e23565b6000838152600d60205260409020600381015460ff16610c965760405162461bcd60e51b815260206004820152602160248201527f4361757365206973206e6f74206163746976656c792066756e6472616973696e6044820152606760f81b60648201526084016105cf565b8060010154838260020154610cab9190611f0c565b1115610cf95760405162461bcd60e51b815260206004820152601a60248201527f416d6f756e74206973206d6f7265207468616e206e656564656400000000000060448201526064016105cf565b82816002016000828254610d0d9190611f0c565b90915550506001810154600282015403610d2e5760038101805460ff191690555b60408051858152602081018590527f4e411661ba521dea4b640cb3d5e64901d8244fb3e36997cacff2bdaea43bc439910160405180910390a150505050565b6107ea338383611014565b610d838484846107ee565b61087333858585856110b3565b6000610d9b81610e23565b61099a7f3673a21ab9497b77b766bf91889841908ddc73b6a50d4793d6c584a3b8a4bfb183610f13565b606061071e826111de565b6000828152600b6020526040902060010154610deb81610e23565b6108738383610fa7565b6001600160a01b03918216600090815260056020908152604080832093909416825291909152205460ff1690565b610e2d81336112e7565b50565b6107ea828260405180602001604052806000815250611320565b6000828152600a60205260409020610e628282611f65565b506040518281527ff8e1a15aba9398e019f0b49df1a4fde98ee17ae345cb5f6b5e2c27f5033e8ce7906020016108d1565b60006001600160e01b03198216637965db0b60e01b148061071e575061071e82611338565b6000818152600260205260408120546001600160a01b03168061071e57604051637e27328960e01b8152600481018490526024016105cf565b61099a838383600161135d565b6000610f0b848484611463565b949350505050565b6000610f1f8383610aa7565b610f9f576000838152600b602090815260408083206001600160a01b03861684529091529020805460ff19166001179055610f573390565b6001600160a01b0316826001600160a01b0316847f2f8788117e7eff1d82e926ec794901d17c78024a50270940304540a733656f0d60405160405180910390a450600161071e565b50600061071e565b6000610fb38383610aa7565b15610f9f576000838152600b602090815260408083206001600160a01b0386168085529252808320805460ff1916905551339286917ff6391f5c32d9c69d2a47ea670b442974b53935d1edc7fd64eb21e047a839171b9190a450600161071e565b6001600160a01b03821661104657604051630b61174360e31b81526001600160a01b03831660048201526024016105cf565b6001600160a01b03838116600081815260056020908152604080832094871680845294825291829020805460ff191686151590811790915591519182527f17307eab39ab6107e8899845ad3d59bd9653f200f220920489ca2b5937696c31910160405180910390a3505050565b6001600160a01b0383163b156111d757604051630a85bd0160e11b81526001600160a01b0384169063150b7a02906110f5908890889087908790600401612025565b6020604051808303816000875af1925050508015611130575060408051601f3d908101601f1916820190925261112d91810190612062565b60015b611199573d80801561115e576040519150601f19603f3d011682016040523d82523d6000602084013e611163565b606091505b50805160000361119157604051633250574960e11b81526001600160a01b03851660048201526024016105cf565b805181602001fd5b6001600160e01b03198116630a85bd0160e11b146111d557604051633250574960e11b81526001600160a01b03851660048201526024016105cf565b505b5050505050565b60606111e982610eb8565b506000828152600a60205260408120805461120390611ebc565b80601f016020809104026020016040519081016040528092919081815260200182805461122f90611ebc565b801561127c5780601f106112515761010080835404028352916020019161127c565b820191906000526020600020905b81548152906001019060200180831161125f57829003601f168201915b50505050509050600061129a60408051602081019091526000815290565b905080516000036112ac575092915050565b8151156112de5780826040516020016112c692919061207f565b60405160208183030381529060405292505050919050565b610f0b84611530565b6112f18282610aa7565b6107ea5760405163e2517d3f60e01b81526001600160a01b0382166004820152602481018390526044016105cf565b61132a83836115a5565b61099a3360008585856110b3565b60006001600160e01b03198216632483248360e11b148061071e575061071e8261160a565b808061137157506001600160a01b03821615155b1561143357600061138184610eb8565b90506001600160a01b038316158015906113ad5750826001600160a01b0316816001600160a01b031614155b80156113c057506113be8184610df5565b155b156113e95760405163a9fbf51f60e01b81526001600160a01b03841660048201526024016105cf565b81156114315783856001600160a01b0316826001600160a01b03167f8c5be1e5ebec7d5bd14f71427d1e84f3dd0314c0f7b2291e5b200ac8c7c3b92560405160405180910390a45b505b5050600090815260046020526040902080546001600160a01b0319166001600160a01b0392909216919091179055565b60008061147185858561162f565b90506001600160a01b0381166114ce576114c984600880546000838152600960205260408120829055600182018355919091527ff3f7a9fe364faab93b216da50a3214154f22a0a2b415b23a84c8169e8b636ee30155565b6114f1565b846001600160a01b0316816001600160a01b0316146114f1576114f18185611728565b6001600160a01b03851661150d57611508846117a9565b610f0b565b846001600160a01b0316816001600160a01b031614610f0b57610f0b8585611858565b606061153b82610eb8565b50600061155360408051602081019091526000815290565b90506000815111611573576040518060200160405280600081525061159e565b8061157d846118a8565b60405160200161158e92919061207f565b6040516020818303038152906040525b9392505050565b6001600160a01b0382166115cf57604051633250574960e11b8152600060048201526024016105cf565b60006115dd83836000610efe565b90506001600160a01b0381161561099a576040516339e3563760e11b8152600060048201526024016105cf565b60006001600160e01b0319821663780e9d6360e01b148061071e575061071e8261193b565b6000828152600260205260408120546001600160a01b039081169083161561165c5761165c81848661198b565b6001600160a01b0381161561169a5761167960008560008061135d565b6001600160a01b038116600090815260036020526040902080546000190190555b6001600160a01b038516156116c9576001600160a01b0385166000908152600360205260409020805460010190555b60008481526002602052604080822080546001600160a01b0319166001600160a01b0389811691821790925591518793918516917fddf252ad1be2c89b69c2b068fc378daa952ba7f163c4a11628f55a4df523b3ef91a4949350505050565b600061173383610a5f565b6000838152600760209081526040808320546001600160a01b038816845260069092529091209192509081831461178a57600083815260208281526040808320548584528184208190558352600790915290208290555b6000938452600760209081526040808620869055938552525081205550565b6008546000906117bb906001906120ae565b600083815260096020526040812054600880549394509092849081106117e3576117e3611ef6565b90600052602060002001549050806008838154811061180457611804611ef6565b600091825260208083209091019290925582815260099091526040808220849055858252812055600880548061183c5761183c6120c1565b6001900381819060005260206000200160009055905550505050565b6000600161186584610a5f565b61186f91906120ae565b6001600160a01b039093166000908152600660209081526040808320868452825280832085905593825260079052919091209190915550565b606060006118b5836119ef565b600101905060008167ffffffffffffffff8111156118d5576118d5611b2a565b6040519080825280601f01601f1916602001820160405280156118ff576020820181803683370190505b5090508181016020015b600019016f181899199a1a9b1b9c1cb0b131b232b360811b600a86061a8153600a850494508461190957509392505050565b60006001600160e01b031982166380ac58cd60e01b148061196c57506001600160e01b03198216635b5e139f60e01b145b8061071e57506301ffc9a760e01b6001600160e01b031983161461071e565b611996838383611ac7565b61099a576001600160a01b0383166119c457604051637e27328960e01b8152600481018290526024016105cf565b60405163177e802f60e01b81526001600160a01b0383166004820152602481018290526044016105cf565b60008072184f03e93ff9f4daa797ed6e38ed64bf6a1f0160401b8310611a2e5772184f03e93ff9f4daa797ed6e38ed64bf6a1f0160401b830492506040015b6d04ee2d6d415b85acef81000000008310611a5a576d04ee2d6d415b85acef8100000000830492506020015b662386f26fc100008310611a7857662386f26fc10000830492506010015b6305f5e1008310611a90576305f5e100830492506008015b6127108310611aa457612710830492506004015b60648310611ab6576064830492506002015b600a831061071e5760010192915050565b60006001600160a01b03831615801590610f0b5750826001600160a01b0316846001600160a01b03161480611b015750611b018484610df5565b80610f0b5750506000908152600460205260409020546001600160a01b03908116911614919050565b634e487b7160e01b600052604160045260246000fd5b600067ffffffffffffffff80841115611b5b57611b5b611b2a565b604051601f8501601f19908116603f01168101908282118183101715611b8357611b83611b2a565b81604052809350858152868686011115611b9c57600080fd5b858560208301376000602087830101525050509392505050565b80356001600160a01b0381168114611bcd57600080fd5b919050565b600080600060608486031215611be757600080fd5b833567ffffffffffffffff811115611bfe57600080fd5b8401601f81018613611c0f57600080fd5b611c1e86823560208401611b40565b935050611c2d60208501611bb6565b9150604084013590509250925092565b6001600160e01b031981168114610e2d57600080fd5b600060208284031215611c6557600080fd5b813561159e81611c3d565b60005b83811015611c8b578181015183820152602001611c73565b50506000910152565b60008151808452611cac816020860160208601611c70565b601f01601f19169290920160200192915050565b60208152600061159e6020830184611c94565b600060208284031215611ce557600080fd5b5035919050565b60008060408385031215611cff57600080fd5b611d0883611bb6565b946020939093013593505050565b600080600060608486031215611d2b57600080fd5b611d3484611bb6565b9250611c2d60208501611bb6565b600060208284031215611d5457600080fd5b61159e82611bb6565b60008060408385031215611d7057600080fd5b82359150611d8060208401611bb6565b90509250929050565b60008060408385031215611d9c57600080fd5b50508035926020909101359150565b60008060408385031215611dbe57600080fd5b611dc783611bb6565b915060208301358015158114611ddc57600080fd5b809150509250929050565b60008060008060808587031215611dfd57600080fd5b611e0685611bb6565b9350611e1460208601611bb6565b925060408501359150606085013567ffffffffffffffff811115611e3757600080fd5b8501601f81018713611e4857600080fd5b611e5787823560208401611b40565b91505092959194509250565b60008060408385031215611e7657600080fd5b611e7f83611bb6565b9150611d8060208401611bb6565b634e487b7160e01b600052601160045260246000fd5b600060018201611eb557611eb5611e8d565b5060010190565b600181811c90821680611ed057607f821691505b602082108103611ef057634e487b7160e01b600052602260045260246000fd5b50919050565b634e487b7160e01b600052603260045260246000fd5b8082018082111561071e5761071e611e8d565b601f82111561099a57600081815260208120601f850160051c81016020861015611f465750805b601f850160051c820191505b818110156111d557828155600101611f52565b815167ffffffffffffffff811115611f7f57611f7f611b2a565b611f9381611f8d8454611ebc565b84611f1f565b602080601f831160018114611fc85760008415611fb05750858301515b600019600386901b1c1916600185901b1785556111d5565b600085815260208120601f198616915b82811015611ff757888601518255948401946001909101908401611fd8565b50858210156120155787850151600019600388901b60f8161c191681555b5050505050600190811b01905550565b6001600160a01b038581168252841660208201526040810183905260806060820181905260009061205890830184611c94565b9695505050505050565b60006020828403121561207457600080fd5b815161159e81611c3d565b60008351612091818460208801611c70565b8351908301906120a5818360208801611c70565b01949350505050565b8181038181111561071e5761071e611e8d565b634e487b7160e01b600052603160045260246000fdfea2646970667358221220851891955cb500fc4b445cfea87c8586b4520c650c9db720fab55728d319b36464736f6c63430008140033",
  "devdoc": {
    "details": "Contract for managing fundraising causes using NFTs.",
    "errors": {
      "AccessControlBadConfirmation()": [
        {
          "details": "The caller of a function is not the expected one. NOTE: Don't confuse with {AccessControlUnauthorizedAccount}."
        }
      ],
      "AccessControlUnauthorizedAccount(address,bytes32)": [
        {
          "details": "The `account` is missing a role."
        }
      ],
      "ERC721EnumerableForbiddenBatchMint()": [
        {
          "details": "Batch mint is not allowed."
        }
      ],
      "ERC721IncorrectOwner(address,uint256,address)": [
        {
          "details": "Indicates an error related to the ownership over a particular token. Used in transfers.",
          "params": {
            "owner": "Address of the current owner of a token.",
            "sender": "Address whose tokens are being transferred.",
            "tokenId": "Identifier number of a token."
          }
        }
      ],
      "ERC721InsufficientApproval(address,uint256)": [
        {
          "details": "Indicates a failure with the `operator`s approval. Used in transfers.",
          "params": {
            "operator": "Address that may be allowed to operate on tokens without being their owner.",
            "tokenId": "Identifier number of a token."
          }
        }
      ],
      "ERC721InvalidApprover(address)": [
        {
          "details": "Indicates a failure with the `approver` of a token to be approved. Used in approvals.",
          "params": {
            "approver": "Address initiating an approval operation."
          }
        }
      ],
      "ERC721InvalidOperator(address)": [
        {
          "details": "Indicates a failure with the `operator` to be approved. Used in approvals.",
          "params": {
            "operator": "Address that may be allowed to operate on tokens without being their owner."
          }
        }
      ],
      "ERC721InvalidOwner(address)": [
        {
          "details": "Indicates that an address can't be an owner. For example, `address(0)` is a forbidden owner in ERC-20. Used in balance queries.",
          "params": {
            "owner": "Address of the current owner of a token."
          }
        }
      ],
      "ERC721InvalidReceiver(address)": [
        {
          "details": "Indicates a failure with the token `receiver`. Used in transfers.",
          "params": {
            "receiver": "Address to which tokens are being transferred."
          }
        }
      ],
      "ERC721InvalidSender(address)": [
        {
          "details": "Indicates a failure with the token `sender`. Used in transfers.",
          "params": {
            "sender": "Address whose tokens are being transferred."
          }
        }
      ],
      "ERC721NonexistentToken(uint256)": [
        {
          "details": "Indicates a `tokenId` whose `owner` is the zero address.",
          "params": {
            "tokenId": "Identifier number of a token."
          }
        }
      ],
      "ERC721OutOfBoundsIndex(address,uint256)": [
        {
          "details": "An `owner`'s token query was out of bounds for `index`. NOTE: The owner being `address(0)` indicates a global out of bounds index."
        }
      ]
    },
    "events": {
      "Approval(address,address,uint256)": {
        "details": "Emitted when `owner` enables `approved` to manage the `tokenId` token."
      },
      "ApprovalForAll(address,address,bool)": {
        "details": "Emitted when `owner` enables or disables (`approved`) `operator` to manage all of its assets."
      },
      "BatchMetadataUpdate(uint256,uint256)": {
        "details": "This event emits when the metadata of a range of tokens is changed. So that the third-party platforms such as NFT market could timely update the images and related attributes of the NFTs."
      },
      "MetadataUpdate(uint256)": {
        "details": "This event emits when the metadata of a token is changed. So that the third-party platforms such as NFT market could timely update the images and related attributes of the NFT."
      },
      "RoleAdminChanged(bytes32,bytes32,bytes32)": {
        "details": "Emitted when `newAdminRole` is set as ``role``'s admin role, replacing `previousAdminRole` `DEFAULT_ADMIN_ROLE` is the starting admin for all roles, despite {RoleAdminChanged} not being emitted signaling this."
      },
      "RoleGranted(bytes32,address,address)": {
        "details": "Emitted when `account` is granted `role`. `sender` is the account that originated the contract call. This account bears the admin role (for the granted role). Expected in cases where the role was granted using the internal {AccessControl-_grantRole}."
      },
      "RoleRevoked(bytes32,address,address)": {
        "details": "Emitted when `account` is revoked `role`. `sender` is the account that originated the contract call:   - if using `revokeRole`, it is the admin role bearer   - if using `renounceRole`, it is the role bearer (i.e. `account`)"
      },
      "Transfer(address,address,uint256)": {
        "details": "Emitted when `tokenId` token is transferred from `from` to `to`."
      }
    },
    "kind": "dev",
    "methods": {
      "approve(address,uint256)": {
        "details": "See {IERC721-approve}."
      },
      "balanceOf(address)": {
        "details": "See {IERC721-balanceOf}."
      },
      "burn(uint256)": {
        "details": "Burns `tokenId`. See {ERC721-_burn}. Requirements: - The caller must own `tokenId` or be an approved operator."
      },
      "changeOwnership(address)": {
        "params": {
          "to": "The address of the new owner."
        }
      },
      "constructor": {
        "details": "Initializes the contract, setting up roles.",
        "params": {
          "initialOwner": "The address of the initial owner."
        }
      },
      "getApproved(uint256)": {
        "details": "See {IERC721-getApproved}."
      },
      "getFundraiser(uint256)": {
        "params": {
          "tokenId": "The ID of the cause token."
        },
        "returns": {
          "_0": "The address of the fundraiser."
        }
      },
      "getRoleAdmin(bytes32)": {
        "details": "Returns the admin role that controls `role`. See {grantRole} and {revokeRole}. To change a role's admin, use {_setRoleAdmin}."
      },
      "grantGivvestRole(address)": {
        "params": {
          "givvestContract": "The contract address to be granted the GIVVEST_ROLE."
        }
      },
      "grantMinterRole(address)": {
        "params": {
          "minter": "The address to be granted the minter role."
        }
      },
      "grantRole(bytes32,address)": {
        "details": "Grants `role` to `account`. If `account` had not been already granted `role`, emits a {RoleGranted} event. Requirements: - the caller must have ``role``'s admin role. May emit a {RoleGranted} event."
      },
      "hasRole(bytes32,address)": {
        "details": "Returns `true` if `account` has been granted `role`."
      },
      "isApprovedForAll(address,address)": {
        "details": "See {IERC721-isApprovedForAll}."
      },
      "name()": {
        "details": "See {IERC721Metadata-name}."
      },
      "ownerOf(uint256)": {
        "details": "See {IERC721-ownerOf}."
      },
      "raiseAmount(uint256,uint256)": {
        "params": {
          "amount": "The amount to raise.",
          "tokenId": "The ID of the cause token."
        }
      },
      "renounceRole(bytes32,address)": {
        "details": "Revokes `role` from the calling account. Roles are often managed via {grantRole} and {revokeRole}: this function's purpose is to provide a mechanism for accounts to lose their privileges if they are compromised (such as when a trusted device is misplaced). If the calling account had been revoked `role`, emits a {RoleRevoked} event. Requirements: - the caller must be `callerConfirmation`. May emit a {RoleRevoked} event."
      },
      "revokeRole(bytes32,address)": {
        "details": "Revokes `role` from `account`. If `account` had been granted `role`, emits a {RoleRevoked} event. Requirements: - the caller must have ``role``'s admin role. May emit a {RoleRevoked} event."
      },
      "safeMint(string,address,uint256)": {
        "params": {
          "amountNeeded": "The amount needed for the cause.",
          "fundraiser": "The address of the fundraiser.",
          "uri": "The URI of the token metadata."
        }
      },
      "safeTransferFrom(address,address,uint256)": {
        "details": "See {IERC721-safeTransferFrom}."
      },
      "safeTransferFrom(address,address,uint256,bytes)": {
        "details": "See {IERC721-safeTransferFrom}."
      },
      "setApprovalForAll(address,bool)": {
        "details": "See {IERC721-setApprovalForAll}."
      },
      "supportsInterface(bytes4)": {
        "details": "Override for `supportsInterface` function to ensure compatibility with multiple inheritance."
      },
      "symbol()": {
        "details": "See {IERC721Metadata-symbol}."
      },
      "toggleCauseState(uint256)": {
        "params": {
          "tokenId": "The ID of the cause token."
        }
      },
      "tokenByIndex(uint256)": {
        "details": "See {IERC721Enumerable-tokenByIndex}."
      },
      "tokenOfOwnerByIndex(address,uint256)": {
        "details": "See {IERC721Enumerable-tokenOfOwnerByIndex}."
      },
      "tokenURI(uint256)": {
        "params": {
          "tokenId": "The ID of the token."
        },
        "returns": {
          "_0": "The token URI."
        }
      },
      "totalSupply()": {
        "details": "See {IERC721Enumerable-totalSupply}."
      },
      "transferFrom(address,address,uint256)": {
        "details": "See {IERC721-transferFrom}."
      }
    },
    "title": "GivvestCause",
    "version": 1
  },
  "userdoc": {
    "kind": "user",
    "methods": {
      "changeOwnership(address)": {
        "notice": "Change the ownership of the contract to a new address."
      },
      "getFundraiser(uint256)": {
        "notice": "Get the address of the fundraiser for a specific cause."
      },
      "grantGivvestRole(address)": {
        "notice": "Grant the Givvest role to a contract address."
      },
      "grantMinterRole(address)": {
        "notice": "Grant the minter role to an address."
      },
      "raiseAmount(uint256,uint256)": {
        "notice": "Raise an amount for a specific cause."
      },
      "safeMint(string,address,uint256)": {
        "notice": "Safely mint a new token with cause details."
      },
      "toggleCauseState(uint256)": {
        "notice": "Toggle the active state of a cause."
      },
      "tokenURI(uint256)": {
        "notice": "Get the token URI for a specific token ID."
      }
    },
    "version": 1
  },
  "storageLayout": {
    "storage": [
      {
        "astId": 2105,
        "contract": "contracts/GivvestCause.sol:GivvestCause",
        "label": "_name",
        "offset": 0,
        "slot": "0",
        "type": "t_string_storage"
      },
      {
        "astId": 2107,
        "contract": "contracts/GivvestCause.sol:GivvestCause",
        "label": "_symbol",
        "offset": 0,
        "slot": "1",
        "type": "t_string_storage"
      },
      {
        "astId": 2111,
        "contract": "contracts/GivvestCause.sol:GivvestCause",
        "label": "_owners",
        "offset": 0,
        "slot": "2",
        "type": "t_mapping(t_uint256,t_address)"
      },
      {
        "astId": 2115,
        "contract": "contracts/GivvestCause.sol:GivvestCause",
        "label": "_balances",
        "offset": 0,
        "slot": "3",
        "type": "t_mapping(t_address,t_uint256)"
      },
      {
        "astId": 2119,
        "contract": "contracts/GivvestCause.sol:GivvestCause",
        "label": "_tokenApprovals",
        "offset": 0,
        "slot": "4",
        "type": "t_mapping(t_uint256,t_address)"
      },
      {
        "astId": 2125,
        "contract": "contracts/GivvestCause.sol:GivvestCause",
        "label": "_operatorApprovals",
        "offset": 0,
        "slot": "5",
        "type": "t_mapping(t_address,t_mapping(t_address,t_bool))"
      },
      {
        "astId": 3212,
        "contract": "contracts/GivvestCause.sol:GivvestCause",
        "label": "_ownedTokens",
        "offset": 0,
        "slot": "6",
        "type": "t_mapping(t_address,t_mapping(t_uint256,t_uint256))"
      },
      {
        "astId": 3216,
        "contract": "contracts/GivvestCause.sol:GivvestCause",
        "label": "_ownedTokensIndex",
        "offset": 0,
        "slot": "7",
        "type": "t_mapping(t_uint256,t_uint256)"
      },
      {
        "astId": 3219,
        "contract": "contracts/GivvestCause.sol:GivvestCause",
        "label": "_allTokens",
        "offset": 0,
        "slot": "8",
        "type": "t_array(t_uint256)dyn_storage"
      },
      {
        "astId": 3223,
        "contract": "contracts/GivvestCause.sol:GivvestCause",
        "label": "_allTokensIndex",
        "offset": 0,
        "slot": "9",
        "type": "t_mapping(t_uint256,t_uint256)"
      },
      {
        "astId": 3607,
        "contract": "contracts/GivvestCause.sol:GivvestCause",
        "label": "_tokenURIs",
        "offset": 0,
        "slot": "10",
        "type": "t_mapping(t_uint256,t_string_storage)"
      },
      {
        "astId": 26,
        "contract": "contracts/GivvestCause.sol:GivvestCause",
        "label": "_roles",
        "offset": 0,
        "slot": "11",
        "type": "t_mapping(t_bytes32,t_struct(RoleData)21_storage)"
      },
      {
        "astId": 9811,
        "contract": "contracts/GivvestCause.sol:GivvestCause",
        "label": "tokenCount",
        "offset": 0,
        "slot": "12",
        "type": "t_uint256"
      },
      {
        "astId": 9816,
        "contract": "contracts/GivvestCause.sol:GivvestCause",
        "label": "causes",
        "offset": 0,
        "slot": "13",
        "type": "t_mapping(t_uint256,t_struct(Cause)9799_storage)"
      }
    ],
    "types": {
      "t_address": {
        "encoding": "inplace",
        "label": "address",
        "numberOfBytes": "20"
      },
      "t_array(t_uint256)dyn_storage": {
        "base": "t_uint256",
        "encoding": "dynamic_array",
        "label": "uint256[]",
        "numberOfBytes": "32"
      },
      "t_bool": {
        "encoding": "inplace",
        "label": "bool",
        "numberOfBytes": "1"
      },
      "t_bytes32": {
        "encoding": "inplace",
        "label": "bytes32",
        "numberOfBytes": "32"
      },
      "t_mapping(t_address,t_bool)": {
        "encoding": "mapping",
        "key": "t_address",
        "label": "mapping(address => bool)",
        "numberOfBytes": "32",
        "value": "t_bool"
      },
      "t_mapping(t_address,t_mapping(t_address,t_bool))": {
        "encoding": "mapping",
        "key": "t_address",
        "label": "mapping(address => mapping(address => bool))",
        "numberOfBytes": "32",
        "value": "t_mapping(t_address,t_bool)"
      },
      "t_mapping(t_address,t_mapping(t_uint256,t_uint256))": {
        "encoding": "mapping",
        "key": "t_address",
        "label": "mapping(address => mapping(uint256 => uint256))",
        "numberOfBytes": "32",
        "value": "t_mapping(t_uint256,t_uint256)"
      },
      "t_mapping(t_address,t_uint256)": {
        "encoding": "mapping",
        "key": "t_address",
        "label": "mapping(address => uint256)",
        "numberOfBytes": "32",
        "value": "t_uint256"
      },
      "t_mapping(t_bytes32,t_struct(RoleData)21_storage)": {
        "encoding": "mapping",
        "key": "t_bytes32",
        "label": "mapping(bytes32 => struct AccessControl.RoleData)",
        "numberOfBytes": "32",
        "value": "t_struct(RoleData)21_storage"
      },
      "t_mapping(t_uint256,t_address)": {
        "encoding": "mapping",
        "key": "t_uint256",
        "label": "mapping(uint256 => address)",
        "numberOfBytes": "32",
        "value": "t_address"
      },
      "t_mapping(t_uint256,t_string_storage)": {
        "encoding": "mapping",
        "key": "t_uint256",
        "label": "mapping(uint256 => string)",
        "numberOfBytes": "32",
        "value": "t_string_storage"
      },
      "t_mapping(t_uint256,t_struct(Cause)9799_storage)": {
        "encoding": "mapping",
        "key": "t_uint256",
        "label": "mapping(uint256 => struct GivvestCause.Cause)",
        "numberOfBytes": "32",
        "value": "t_struct(Cause)9799_storage"
      },
      "t_mapping(t_uint256,t_uint256)": {
        "encoding": "mapping",
        "key": "t_uint256",
        "label": "mapping(uint256 => uint256)",
        "numberOfBytes": "32",
        "value": "t_uint256"
      },
      "t_string_storage": {
        "encoding": "bytes",
        "label": "string",
        "numberOfBytes": "32"
      },
      "t_struct(Cause)9799_storage": {
        "encoding": "inplace",
        "label": "struct GivvestCause.Cause",
        "members": [
          {
            "astId": 9792,
            "contract": "contracts/GivvestCause.sol:GivvestCause",
            "label": "fundraiser",
            "offset": 0,
            "slot": "0",
            "type": "t_address"
          },
          {
            "astId": 9794,
            "contract": "contracts/GivvestCause.sol:GivvestCause",
            "label": "amountNeeded",
            "offset": 0,
            "slot": "1",
            "type": "t_uint256"
          },
          {
            "astId": 9796,
            "contract": "contracts/GivvestCause.sol:GivvestCause",
            "label": "amountRaised",
            "offset": 0,
            "slot": "2",
            "type": "t_uint256"
          },
          {
            "astId": 9798,
            "contract": "contracts/GivvestCause.sol:GivvestCause",
            "label": "isActive",
            "offset": 0,
            "slot": "3",
            "type": "t_bool"
          }
        ],
        "numberOfBytes": "128"
      },
      "t_struct(RoleData)21_storage": {
        "encoding": "inplace",
        "label": "struct AccessControl.RoleData",
        "members": [
          {
            "astId": 18,
            "contract": "contracts/GivvestCause.sol:GivvestCause",
            "label": "hasRole",
            "offset": 0,
            "slot": "0",
            "type": "t_mapping(t_address,t_bool)"
          },
          {
            "astId": 20,
            "contract": "contracts/GivvestCause.sol:GivvestCause",
            "label": "adminRole",
            "offset": 0,
            "slot": "1",
            "type": "t_bytes32"
          }
        ],
        "numberOfBytes": "64"
      },
      "t_uint256": {
        "encoding": "inplace",
        "label": "uint256",
        "numberOfBytes": "32"
      }
    }
  }
}