{
  "address": "0x6FacC85DEd6d47A84CD9390053ff8f7461A55504",
  "abi": [
    {
      "inputs": [
        {
          "internalType": "address",
          "name": "initialOwner",
          "type": "address"
        }
      ],
      "stateMutability": "nonpayable",
      "type": "constructor"
    },
    {
      "inputs": [],
      "name": "AccessControlBadConfirmation",
      "type": "error"
    },
    {
      "inputs": [
        {
          "internalType": "address",
          "name": "account",
          "type": "address"
        },
        {
          "internalType": "bytes32",
          "name": "neededRole",
          "type": "bytes32"
        }
      ],
      "name": "AccessControlUnauthorizedAccount",
      "type": "error"
    },
    {
      "inputs": [],
      "name": "ERC721EnumerableForbiddenBatchMint",
      "type": "error"
    },
    {
      "inputs": [
        {
          "internalType": "address",
          "name": "sender",
          "type": "address"
        },
        {
          "internalType": "uint256",
          "name": "tokenId",
          "type": "uint256"
        },
        {
          "internalType": "address",
          "name": "owner",
          "type": "address"
        }
      ],
      "name": "ERC721IncorrectOwner",
      "type": "error"
    },
    {
      "inputs": [
        {
          "internalType": "address",
          "name": "operator",
          "type": "address"
        },
        {
          "internalType": "uint256",
          "name": "tokenId",
          "type": "uint256"
        }
      ],
      "name": "ERC721InsufficientApproval",
      "type": "error"
    },
    {
      "inputs": [
        {
          "internalType": "address",
          "name": "approver",
          "type": "address"
        }
      ],
      "name": "ERC721InvalidApprover",
      "type": "error"
    },
    {
      "inputs": [
        {
          "internalType": "address",
          "name": "operator",
          "type": "address"
        }
      ],
      "name": "ERC721InvalidOperator",
      "type": "error"
    },
    {
      "inputs": [
        {
          "internalType": "address",
          "name": "owner",
          "type": "address"
        }
      ],
      "name": "ERC721InvalidOwner",
      "type": "error"
    },
    {
      "inputs": [
        {
          "internalType": "address",
          "name": "receiver",
          "type": "address"
        }
      ],
      "name": "ERC721InvalidReceiver",
      "type": "error"
    },
    {
      "inputs": [
        {
          "internalType": "address",
          "name": "sender",
          "type": "address"
        }
      ],
      "name": "ERC721InvalidSender",
      "type": "error"
    },
    {
      "inputs": [
        {
          "internalType": "uint256",
          "name": "tokenId",
          "type": "uint256"
        }
      ],
      "name": "ERC721NonexistentToken",
      "type": "error"
    },
    {
      "inputs": [
        {
          "internalType": "address",
          "name": "owner",
          "type": "address"
        },
        {
          "internalType": "uint256",
          "name": "index",
          "type": "uint256"
        }
      ],
      "name": "ERC721OutOfBoundsIndex",
      "type": "error"
    },
    {
      "anonymous": false,
      "inputs": [
        {
          "indexed": false,
          "internalType": "uint256",
          "name": "tokenId",
          "type": "uint256"
        },
        {
          "indexed": false,
          "internalType": "uint256",
          "name": "amount",
          "type": "uint256"
        }
      ],
      "name": "AmountRaised",
      "type": "event"
    },
    {
      "anonymous": false,
      "inputs": [
        {
          "indexed": true,
          "internalType": "address",
          "name": "owner",
          "type": "address"
        },
        {
          "indexed": true,
          "internalType": "address",
          "name": "approved",
          "type": "address"
        },
        {
          "indexed": true,
          "internalType": "uint256",
          "name": "tokenId",
          "type": "uint256"
        }
      ],
      "name": "Approval",
      "type": "event"
    },
    {
      "anonymous": false,
      "inputs": [
        {
          "indexed": true,
          "internalType": "address",
          "name": "owner",
          "type": "address"
        },
        {
          "indexed": true,
          "internalType": "address",
          "name": "operator",
          "type": "address"
        },
        {
          "indexed": false,
          "internalType": "bool",
          "name": "approved",
          "type": "bool"
        }
      ],
      "name": "ApprovalForAll",
      "type": "event"
    },
    {
      "anonymous": false,
      "inputs": [
        {
          "indexed": false,
          "internalType": "uint256",
          "name": "_fromTokenId",
          "type": "uint256"
        },
        {
          "indexed": false,
          "internalType": "uint256",
          "name": "_toTokenId",
          "type": "uint256"
        }
      ],
      "name": "BatchMetadataUpdate",
      "type": "event"
    },
    {
      "anonymous": false,
      "inputs": [
        {
          "indexed": false,
          "internalType": "uint256",
          "name": "tokenId",
          "type": "uint256"
        },
        {
          "indexed": false,
          "internalType": "address",
          "name": "fundraiser",
          "type": "address"
        },
        {
          "indexed": false,
          "internalType": "uint256",
          "name": "amountNeeded",
          "type": "uint256"
        }
      ],
      "name": "CauseMinted",
      "type": "event"
    },
    {
      "anonymous": false,
      "inputs": [
        {
          "indexed": false,
          "internalType": "uint256",
          "name": "tokenId",
          "type": "uint256"
        },
        {
          "indexed": false,
          "internalType": "bool",
          "name": "isActive",
          "type": "bool"
        }
      ],
      "name": "CauseStateToggled",
      "type": "event"
    },
    {
      "anonymous": false,
      "inputs": [
        {
          "indexed": false,
          "internalType": "uint256",
          "name": "_tokenId",
          "type": "uint256"
        }
      ],
      "name": "MetadataUpdate",
      "type": "event"
    },
    {
      "anonymous": false,
      "inputs": [
        {
          "indexed": false,
          "internalType": "address",
          "name": "newOwner",
          "type": "address"
        }
      ],
      "name": "OwnershipChanged",
      "type": "event"
    },
    {
      "anonymous": false,
      "inputs": [
        {
          "indexed": true,
          "internalType": "bytes32",
          "name": "role",
          "type": "bytes32"
        },
        {
          "indexed": true,
          "internalType": "bytes32",
          "name": "previousAdminRole",
          "type": "bytes32"
        },
        {
          "indexed": true,
          "internalType": "bytes32",
          "name": "newAdminRole",
          "type": "bytes32"
        }
      ],
      "name": "RoleAdminChanged",
      "type": "event"
    },
    {
      "anonymous": false,
      "inputs": [
        {
          "indexed": true,
          "internalType": "bytes32",
          "name": "role",
          "type": "bytes32"
        },
        {
          "indexed": true,
          "internalType": "address",
          "name": "account",
          "type": "address"
        },
        {
          "indexed": true,
          "internalType": "address",
          "name": "sender",
          "type": "address"
        }
      ],
      "name": "RoleGranted",
      "type": "event"
    },
    {
      "anonymous": false,
      "inputs": [
        {
          "indexed": true,
          "internalType": "bytes32",
          "name": "role",
          "type": "bytes32"
        },
        {
          "indexed": true,
          "internalType": "address",
          "name": "account",
          "type": "address"
        },
        {
          "indexed": true,
          "internalType": "address",
          "name": "sender",
          "type": "address"
        }
      ],
      "name": "RoleRevoked",
      "type": "event"
    },
    {
      "anonymous": false,
      "inputs": [
        {
          "indexed": true,
          "internalType": "address",
          "name": "from",
          "type": "address"
        },
        {
          "indexed": true,
          "internalType": "address",
          "name": "to",
          "type": "address"
        },
        {
          "indexed": true,
          "internalType": "uint256",
          "name": "tokenId",
          "type": "uint256"
        }
      ],
      "name": "Transfer",
      "type": "event"
    },
    {
      "inputs": [],
      "name": "DEFAULT_ADMIN_ROLE",
      "outputs": [
        {
          "internalType": "bytes32",
          "name": "",
          "type": "bytes32"
        }
      ],
      "stateMutability": "view",
      "type": "function"
    },
    {
      "inputs": [],
      "name": "GIVVEST_ROLE",
      "outputs": [
        {
          "internalType": "bytes32",
          "name": "",
          "type": "bytes32"
        }
      ],
      "stateMutability": "view",
      "type": "function"
    },
    {
      "inputs": [],
      "name": "MINTER_ROLE",
      "outputs": [
        {
          "internalType": "bytes32",
          "name": "",
          "type": "bytes32"
        }
      ],
      "stateMutability": "view",
      "type": "function"
    },
    {
      "inputs": [
        {
          "internalType": "address",
          "name": "to",
          "type": "address"
        },
        {
          "internalType": "uint256",
          "name": "tokenId",
          "type": "uint256"
        }
      ],
      "name": "approve",
      "outputs": [],
      "stateMutability": "nonpayable",
      "type": "function"
    },
    {
      "inputs": [
        {
          "internalType": "address",
          "name": "owner",
          "type": "address"
        }
      ],
      "name": "balanceOf",
      "outputs": [
        {
          "internalType": "uint256",
          "name": "",
          "type": "uint256"
        }
      ],
      "stateMutability": "view",
      "type": "function"
    },
    {
      "inputs": [
        {
          "internalType": "uint256",
          "name": "tokenId",
          "type": "uint256"
        }
      ],
      "name": "burn",
      "outputs": [],
      "stateMutability": "nonpayable",
      "type": "function"
    },
    {
      "inputs": [
        {
          "internalType": "uint256",
          "name": "",
          "type": "uint256"
        }
      ],
      "name": "causes",
      "outputs": [
        {
          "internalType": "address",
          "name": "fundraiser",
          "type": "address"
        },
        {
          "internalType": "uint256",
          "name": "amountNeeded",
          "type": "uint256"
        },
        {
          "internalType": "uint256",
          "name": "amountRaised",
          "type": "uint256"
        },
        {
          "internalType": "bool",
          "name": "isActive",
          "type": "bool"
        }
      ],
      "stateMutability": "view",
      "type": "function"
    },
    {
      "inputs": [
        {
          "internalType": "address",
          "name": "to",
          "type": "address"
        }
      ],
      "name": "changeOwnership",
      "outputs": [],
      "stateMutability": "nonpayable",
      "type": "function"
    },
    {
      "inputs": [
        {
          "internalType": "uint256",
          "name": "tokenId",
          "type": "uint256"
        }
      ],
      "name": "getApproved",
      "outputs": [
        {
          "internalType": "address",
          "name": "",
          "type": "address"
        }
      ],
      "stateMutability": "view",
      "type": "function"
    },
    {
      "inputs": [
        {
          "internalType": "uint256",
          "name": "tokenId",
          "type": "uint256"
        }
      ],
      "name": "getFundraiser",
      "outputs": [
        {
          "internalType": "address",
          "name": "",
          "type": "address"
        }
      ],
      "stateMutability": "view",
      "type": "function"
    },
    {
      "inputs": [
        {
          "internalType": "bytes32",
          "name": "role",
          "type": "bytes32"
        }
      ],
      "name": "getRoleAdmin",
      "outputs": [
        {
          "internalType": "bytes32",
          "name": "",
          "type": "bytes32"
        }
      ],
      "stateMutability": "view",
      "type": "function"
    },
    {
      "inputs": [
        {
          "internalType": "address",
          "name": "givvestContract",
          "type": "address"
        }
      ],
      "name": "grantGivvestRole",
      "outputs": [],
      "stateMutability": "nonpayable",
      "type": "function"
    },
    {
      "inputs": [
        {
          "internalType": "address",
          "name": "minter",
          "type": "address"
        }
      ],
      "name": "grantMinterRole",
      "outputs": [],
      "stateMutability": "nonpayable",
      "type": "function"
    },
    {
      "inputs": [
        {
          "internalType": "bytes32",
          "name": "role",
          "type": "bytes32"
        },
        {
          "internalType": "address",
          "name": "account",
          "type": "address"
        }
      ],
      "name": "grantRole",
      "outputs": [],
      "stateMutability": "nonpayable",
      "type": "function"
    },
    {
      "inputs": [
        {
          "internalType": "bytes32",
          "name": "role",
          "type": "bytes32"
        },
        {
          "internalType": "address",
          "name": "account",
          "type": "address"
        }
      ],
      "name": "hasRole",
      "outputs": [
        {
          "internalType": "bool",
          "name": "",
          "type": "bool"
        }
      ],
      "stateMutability": "view",
      "type": "function"
    },
    {
      "inputs": [
        {
          "internalType": "address",
          "name": "owner",
          "type": "address"
        },
        {
          "internalType": "address",
          "name": "operator",
          "type": "address"
        }
      ],
      "name": "isApprovedForAll",
      "outputs": [
        {
          "internalType": "bool",
          "name": "",
          "type": "bool"
        }
      ],
      "stateMutability": "view",
      "type": "function"
    },
    {
      "inputs": [],
      "name": "name",
      "outputs": [
        {
          "internalType": "string",
          "name": "",
          "type": "string"
        }
      ],
      "stateMutability": "view",
      "type": "function"
    },
    {
      "inputs": [
        {
          "internalType": "uint256",
          "name": "tokenId",
          "type": "uint256"
        }
      ],
      "name": "ownerOf",
      "outputs": [
        {
          "internalType": "address",
          "name": "",
          "type": "address"
        }
      ],
      "stateMutability": "view",
      "type": "function"
    },
    {
      "inputs": [
        {
          "internalType": "uint256",
          "name": "tokenId",
          "type": "uint256"
        },
        {
          "internalType": "uint256",
          "name": "amount",
          "type": "uint256"
        }
      ],
      "name": "raiseAmount",
      "outputs": [],
      "stateMutability": "nonpayable",
      "type": "function"
    },
    {
      "inputs": [
        {
          "internalType": "bytes32",
          "name": "role",
          "type": "bytes32"
        },
        {
          "internalType": "address",
          "name": "callerConfirmation",
          "type": "address"
        }
      ],
      "name": "renounceRole",
      "outputs": [],
      "stateMutability": "nonpayable",
      "type": "function"
    },
    {
      "inputs": [
        {
          "internalType": "bytes32",
          "name": "role",
          "type": "bytes32"
        },
        {
          "internalType": "address",
          "name": "account",
          "type": "address"
        }
      ],
      "name": "revokeRole",
      "outputs": [],
      "stateMutability": "nonpayable",
      "type": "function"
    },
    {
      "inputs": [
        {
          "internalType": "string",
          "name": "uri",
          "type": "string"
        },
        {
          "internalType": "address",
          "name": "fundraiser",
          "type": "address"
        },
        {
          "internalType": "uint256",
          "name": "amountNeeded",
          "type": "uint256"
        }
      ],
      "name": "safeMint",
      "outputs": [],
      "stateMutability": "nonpayable",
      "type": "function"
    },
    {
      "inputs": [
        {
          "internalType": "address",
          "name": "from",
          "type": "address"
        },
        {
          "internalType": "address",
          "name": "to",
          "type": "address"
        },
        {
          "internalType": "uint256",
          "name": "tokenId",
          "type": "uint256"
        }
      ],
      "name": "safeTransferFrom",
      "outputs": [],
      "stateMutability": "nonpayable",
      "type": "function"
    },
    {
      "inputs": [
        {
          "internalType": "address",
          "name": "from",
          "type": "address"
        },
        {
          "internalType": "address",
          "name": "to",
          "type": "address"
        },
        {
          "internalType": "uint256",
          "name": "tokenId",
          "type": "uint256"
        },
        {
          "internalType": "bytes",
          "name": "data",
          "type": "bytes"
        }
      ],
      "name": "safeTransferFrom",
      "outputs": [],
      "stateMutability": "nonpayable",
      "type": "function"
    },
    {
      "inputs": [
        {
          "internalType": "address",
          "name": "operator",
          "type": "address"
        },
        {
          "internalType": "bool",
          "name": "approved",
          "type": "bool"
        }
      ],
      "name": "setApprovalForAll",
      "outputs": [],
      "stateMutability": "nonpayable",
      "type": "function"
    },
    {
      "inputs": [
        {
          "internalType": "bytes4",
          "name": "interfaceId",
          "type": "bytes4"
        }
      ],
      "name": "supportsInterface",
      "outputs": [
        {
          "internalType": "bool",
          "name": "",
          "type": "bool"
        }
      ],
      "stateMutability": "view",
      "type": "function"
    },
    {
      "inputs": [],
      "name": "symbol",
      "outputs": [
        {
          "internalType": "string",
          "name": "",
          "type": "string"
        }
      ],
      "stateMutability": "view",
      "type": "function"
    },
    {
      "inputs": [
        {
          "internalType": "uint256",
          "name": "tokenId",
          "type": "uint256"
        }
      ],
      "name": "toggleCauseState",
      "outputs": [],
      "stateMutability": "nonpayable",
      "type": "function"
    },
    {
      "inputs": [
        {
          "internalType": "uint256",
          "name": "index",
          "type": "uint256"
        }
      ],
      "name": "tokenByIndex",
      "outputs": [
        {
          "internalType": "uint256",
          "name": "",
          "type": "uint256"
        }
      ],
      "stateMutability": "view",
      "type": "function"
    },
    {
      "inputs": [
        {
          "internalType": "address",
          "name": "owner",
          "type": "address"
        },
        {
          "internalType": "uint256",
          "name": "index",
          "type": "uint256"
        }
      ],
      "name": "tokenOfOwnerByIndex",
      "outputs": [
        {
          "internalType": "uint256",
          "name": "",
          "type": "uint256"
        }
      ],
      "stateMutability": "view",
      "type": "function"
    },
    {
      "inputs": [
        {
          "internalType": "uint256",
          "name": "tokenId",
          "type": "uint256"
        }
      ],
      "name": "tokenURI",
      "outputs": [
        {
          "internalType": "string",
          "name": "",
          "type": "string"
        }
      ],
      "stateMutability": "view",
      "type": "function"
    },
    {
      "inputs": [],
      "name": "totalSupply",
      "outputs": [
        {
          "internalType": "uint256",
          "name": "",
          "type": "uint256"
        }
      ],
      "stateMutability": "view",
      "type": "function"
    },
    {
      "inputs": [
        {
          "internalType": "address",
          "name": "from",
          "type": "address"
        },
        {
          "internalType": "address",
          "name": "to",
          "type": "address"
        },
        {
          "internalType": "uint256",
          "name": "tokenId",
          "type": "uint256"
        }
      ],
      "name": "transferFrom",
      "outputs": [],
      "stateMutability": "nonpayable",
      "type": "function"
    }
  ],
  "transactionHash": "0x04e1181ac07210105cb3c89b58a49aa9c399cfe979ad29454949ca23ced9c1a5",
  "args": [
    "0x737d5228E70f35FFA5eB4BCE5eCF0aC4178DcF9e"
  ],
  "numDeployments": 1,
  "solcInputHash": "d89610ed66899049c949ccbe8d891d39",
  "bytecode": "0x60806040523480156200001157600080fd5b506040516200245038038062002450833981016040819052620000349162000190565b6040518060400160405280600c81526020016b47697676657374436175736560a01b8152506040518060400160405280600481526020016347434f5360e01b815250816000908162000087919062000267565b50600162000096828262000267565b50620000a891506000905082620000dd565b50620000d57f9f2df0fed2c77648de5860a4cc508cd0818c85b8b8a1ab4ceeef8d981c8956a682620000dd565b505062000333565b6000828152600b602090815260408083206001600160a01b038516845290915281205460ff1662000186576000838152600b602090815260408083206001600160a01b03861684529091529020805460ff191660011790556200013d3390565b6001600160a01b0316826001600160a01b0316847f2f8788117e7eff1d82e926ec794901d17c78024a50270940304540a733656f0d60405160405180910390a45060016200018a565b5060005b92915050565b600060208284031215620001a357600080fd5b81516001600160a01b0381168114620001bb57600080fd5b9392505050565b634e487b7160e01b600052604160045260246000fd5b600181811c90821680620001ed57607f821691505b6020821081036200020e57634e487b7160e01b600052602260045260246000fd5b50919050565b601f8211156200026257600081815260208120601f850160051c810160208610156200023d5750805b601f850160051c820191505b818110156200025e5782815560010162000249565b5050505b505050565b81516001600160401b03811115620002835762000283620001c2565b6200029b81620002948454620001d8565b8462000214565b602080601f831160018114620002d35760008415620002ba5750858301515b600019600386901b1c1916600185901b1785556200025e565b600085815260208120601f198616915b828110156200030457888601518255948401946001909101908401620002e3565b5085821015620003235787850151600019600388901b60f8161c191681555b5050505050600190811b01905550565b61210d80620003436000396000f3fe608060405234801561001057600080fd5b50600436106101fa5760003560e01c8063538a942a1161011a578063a22cb465116100ad578063c87b56dd1161007c578063c87b56dd146104ae578063d3cda9e7146104c1578063d5391393146104e8578063d547741f1461050f578063e985e9c51461052257600080fd5b8063a22cb4651461044c578063a82000981461045f578063b88d4fde14610488578063c3d489cb1461049b57600080fd5b806395d89b41116100e957806395d89b41146104165780639c3ae7891461041e5780639c6bb72d14610431578063a217fddf1461044457600080fd5b8063538a942a1461036f5780636352211e146103dd57806370a08231146103f057806391d148541461040357600080fd5b80632af4c31e116101925780633dd1eb61116101615780633dd1eb611461032357806342842e0e1461033657806342966c68146103495780634f6ccce71461035c57600080fd5b80632af4c31e146102d75780632f2ff15d146102ea5780632f745c59146102fd57806336568abe1461031057600080fd5b8063095ea7b3116101ce578063095ea7b31461027c57806318160ddd1461028f57806323b872dd146102a1578063248a9ca3146102b457600080fd5b8062e585c2146101ff57806301ffc9a71461021457806306fdde031461023c578063081812fc14610251575b600080fd5b61021261020d366004611bca565b610535565b005b610227610222366004611c4b565b6106ff565b60405190151581526020015b60405180910390f35b610244610710565b6040516102339190611cb8565b61026461025f366004611ccb565b6107a2565b6040516001600160a01b039091168152602001610233565b61021261028a366004611ce4565b6107cb565b6008545b604051908152602001610233565b6102126102af366004611d0e565b6107da565b6102936102c2366004611ccb565b6000908152600b602052604090206001015490565b6102126102e5366004611d3a565b610865565b6102126102f8366004611d55565b6108c9565b61029361030b366004611ce4565b6108ee565b61021261031e366004611d55565b610953565b610212610331366004611d3a565b61098b565b610212610344366004611d0e565b6109c0565b610212610357366004611ccb565b6109db565b61029361036a366004611ccb565b6109e7565b6103b161037d366004611ccb565b600d6020526000908152604090208054600182015460028301546003909301546001600160a01b0390921692909160ff1684565b604080516001600160a01b03909516855260208501939093529183015215156060820152608001610233565b6102646103eb366004611ccb565b610a40565b6102936103fe366004611d3a565b610a4b565b610227610411366004611d55565b610a93565b610244610abe565b61021261042c366004611ccb565b610acd565b61021261043f366004611d81565b610bec565b610293600081565b61021261045a366004611da3565b610d59565b61026461046d366004611ccb565b6000908152600d60205260409020546001600160a01b031690565b610212610496366004611ddf565b610d64565b6102126104a9366004611d3a565b610d7b565b6102446104bc366004611ccb565b610db0565b6102937f3673a21ab9497b77b766bf91889841908ddc73b6a50d4793d6c584a3b8a4bfb181565b6102937f9f2df0fed2c77648de5860a4cc508cd0818c85b8b8a1ab4ceeef8d981c8956a681565b61021261051d366004611d55565b610dbb565b610227610530366004611e5b565b610de0565b7f9f2df0fed2c77648de5860a4cc508cd0818c85b8b8a1ab4ceeef8d981c8956a661055f81610e0e565b600082116105c45760405162461bcd60e51b815260206004820152602760248201527f416d6f756e74206e6565646564206d7573742062652067726561746572207468604482015266616e207a65726f60c81b60648201526084015b60405180910390fd5b6001600160a01b03831661061a5760405162461bcd60e51b815260206004820152601a60248201527f496e76616c69642066756e64726169736572206164647265737300000000000060448201526064016105bb565b600c80546000918261062b83611e9b565b91905055905061063b3382610e1b565b6106458186610e35565b604080516080810182526001600160a01b0386811680835260208084018881526000858701818152600160608089018281528b8552600d8752938a9020985189546001600160a01b031916981697909717885592519287019290925590516002860155516003909401805460ff1916941515949094179093558351858152928301529181018590527f1080047a8706bcacaf766b2e21e16da56bfc2feddac6baa14312f87ce8c0d010910160405180910390a15050505050565b600061070a82610e7e565b92915050565b60606000805461071f90611eb4565b80601f016020809104026020016040519081016040528092919081815260200182805461074b90611eb4565b80156107985780601f1061076d57610100808354040283529160200191610798565b820191906000526020600020905b81548152906001019060200180831161077b57829003601f168201915b5050505050905090565b60006107ad82610ea3565b506000828152600460205260409020546001600160a01b031661070a565b6107d6828233610edc565b5050565b6001600160a01b03821661080457604051633250574960e11b8152600060048201526024016105bb565b6000610811838333610ee9565b9050836001600160a01b0316816001600160a01b03161461085f576040516364283d7b60e01b81526001600160a01b03808616600483015260248201849052821660448201526064016105bb565b50505050565b600061087081610e0e565b61087b600083610efe565b50610887600033610f92565b506040516001600160a01b03831681527f595ee9ffef04d4d652b768860c56905a48f5ab79124bb3b2279df1885536991d906020015b60405180910390a15050565b6000828152600b60205260409020600101546108e481610e0e565b61085f8383610efe565b60006108f983610a4b565b821061092a5760405163295f44f760e21b81526001600160a01b0384166004820152602481018390526044016105bb565b506001600160a01b03919091166000908152600660209081526040808320938352929052205490565b6001600160a01b038116331461097c5760405163334bd91960e11b815260040160405180910390fd5b6109868282610f92565b505050565b600061099681610e0e565b6109867f9f2df0fed2c77648de5860a4cc508cd0818c85b8b8a1ab4ceeef8d981c8956a683610efe565b61098683838360405180602001604052806000815250610d64565b6107d660008233610ee9565b60006109f260085490565b8210610a1b5760405163295f44f760e21b815260006004820152602481018390526044016105bb565b60088281548110610a2e57610a2e611eee565b90600052602060002001549050919050565b600061070a82610ea3565b60006001600160a01b038216610a77576040516322718ad960e21b8152600060048201526024016105bb565b506001600160a01b031660009081526003602052604090205490565b6000918252600b602090815260408084206001600160a01b0393909316845291905290205460ff1690565b60606001805461071f90611eb4565b6000818152600d60205260409020600381015460ff1680610af5575080600101548160020154105b610b415760405162461bcd60e51b815260206004820152601f60248201527f46756e6472616973696e6720697320616c726561647920636f6d706c6574650060448201526064016105bb565b80546001600160a01b0316331480610b5f5750610b5f600033610a93565b610b9b5760405162461bcd60e51b815260206004820152600d60248201526c139bdd081c195c9b5a5d1d1959609a1b60448201526064016105bb565b60038101805460ff8082161560ff1990921682179092556040805185815291909216151560208201527f8958b38508babf606844207948f2f92cc1ccccbe27f0fcbaac9eddcc7201e2c291016108bd565b7f3673a21ab9497b77b766bf91889841908ddc73b6a50d4793d6c584a3b8a4bfb1610c1681610e0e565b6000838152600d60205260409020600381015460ff16610c825760405162461bcd60e51b815260206004820152602160248201527f4361757365206973206e6f74206163746976656c792066756e6472616973696e6044820152606760f81b60648201526084016105bb565b8060010154838260020154610c979190611f04565b1115610ce55760405162461bcd60e51b815260206004820152601a60248201527f416d6f756e74206973206d6f7265207468616e206e656564656400000000000060448201526064016105bb565b82816002016000828254610cf99190611f04565b90915550506001810154600282015403610d1a5760038101805460ff191690555b60408051858152602081018590527f4e411661ba521dea4b640cb3d5e64901d8244fb3e36997cacff2bdaea43bc439910160405180910390a150505050565b6107d6338383610fff565b610d6f8484846107da565b61085f8484848461109e565b6000610d8681610e0e565b6109867f3673a21ab9497b77b766bf91889841908ddc73b6a50d4793d6c584a3b8a4bfb183610efe565b606061070a826111c7565b6000828152600b6020526040902060010154610dd681610e0e565b61085f8383610f92565b6001600160a01b03918216600090815260056020908152604080832093909416825291909152205460ff1690565b610e1881336112d0565b50565b6107d6828260405180602001604052806000815250611309565b6000828152600a60205260409020610e4d8282611f65565b506040518281527ff8e1a15aba9398e019f0b49df1a4fde98ee17ae345cb5f6b5e2c27f5033e8ce7906020016108bd565b60006001600160e01b03198216637965db0b60e01b148061070a575061070a82611320565b6000818152600260205260408120546001600160a01b03168061070a57604051637e27328960e01b8152600481018490526024016105bb565b6109868383836001611345565b6000610ef684848461144b565b949350505050565b6000610f0a8383610a93565b610f8a576000838152600b602090815260408083206001600160a01b03861684529091529020805460ff19166001179055610f423390565b6001600160a01b0316826001600160a01b0316847f2f8788117e7eff1d82e926ec794901d17c78024a50270940304540a733656f0d60405160405180910390a450600161070a565b50600061070a565b6000610f9e8383610a93565b15610f8a576000838152600b602090815260408083206001600160a01b0386168085529252808320805460ff1916905551339286917ff6391f5c32d9c69d2a47ea670b442974b53935d1edc7fd64eb21e047a839171b9190a450600161070a565b6001600160a01b03821661103157604051630b61174360e31b81526001600160a01b03831660048201526024016105bb565b6001600160a01b03838116600081815260056020908152604080832094871680845294825291829020805460ff191686151590811790915591519182527f17307eab39ab6107e8899845ad3d59bd9653f200f220920489ca2b5937696c31910160405180910390a3505050565b6001600160a01b0383163b1561085f57604051630a85bd0160e11b81526001600160a01b0384169063150b7a02906110e0903390889087908790600401612025565b6020604051808303816000875af192505050801561111b575060408051601f3d908101601f1916820190925261111891810190612062565b60015b611184573d808015611149576040519150601f19603f3d011682016040523d82523d6000602084013e61114e565b606091505b50805160000361117c57604051633250574960e11b81526001600160a01b03851660048201526024016105bb565b805181602001fd5b6001600160e01b03198116630a85bd0160e11b146111c057604051633250574960e11b81526001600160a01b03851660048201526024016105bb565b5050505050565b60606111d282610ea3565b506000828152600a6020526040812080546111ec90611eb4565b80601f016020809104026020016040519081016040528092919081815260200182805461121890611eb4565b80156112655780601f1061123a57610100808354040283529160200191611265565b820191906000526020600020905b81548152906001019060200180831161124857829003601f168201915b50505050509050600061128360408051602081019091526000815290565b90508051600003611295575092915050565b8151156112c75780826040516020016112af92919061207f565b60405160208183030381529060405292505050919050565b610ef684611518565b6112da8282610a93565b6107d65760405163e2517d3f60e01b81526001600160a01b0382166004820152602481018390526044016105bb565b611313838361158d565b610986600084848461109e565b60006001600160e01b03198216632483248360e11b148061070a575061070a826115f2565b808061135957506001600160a01b03821615155b1561141b57600061136984610ea3565b90506001600160a01b038316158015906113955750826001600160a01b0316816001600160a01b031614155b80156113a857506113a68184610de0565b155b156113d15760405163a9fbf51f60e01b81526001600160a01b03841660048201526024016105bb565b81156114195783856001600160a01b0316826001600160a01b03167f8c5be1e5ebec7d5bd14f71427d1e84f3dd0314c0f7b2291e5b200ac8c7c3b92560405160405180910390a45b505b5050600090815260046020526040902080546001600160a01b0319166001600160a01b0392909216919091179055565b600080611459858585611617565b90506001600160a01b0381166114b6576114b184600880546000838152600960205260408120829055600182018355919091527ff3f7a9fe364faab93b216da50a3214154f22a0a2b415b23a84c8169e8b636ee30155565b6114d9565b846001600160a01b0316816001600160a01b0316146114d9576114d98185611710565b6001600160a01b0385166114f5576114f0846117a1565b610ef6565b846001600160a01b0316816001600160a01b031614610ef657610ef68585611850565b606061152382610ea3565b50600061153b60408051602081019091526000815290565b9050600081511161155b5760405180602001604052806000815250611586565b80611565846118a0565b60405160200161157692919061207f565b6040516020818303038152906040525b9392505050565b6001600160a01b0382166115b757604051633250574960e11b8152600060048201526024016105bb565b60006115c583836000610ee9565b90506001600160a01b03811615610986576040516339e3563760e11b8152600060048201526024016105bb565b60006001600160e01b0319821663780e9d6360e01b148061070a575061070a82611933565b6000828152600260205260408120546001600160a01b039081169083161561164457611644818486611983565b6001600160a01b0381161561168257611661600085600080611345565b6001600160a01b038116600090815260036020526040902080546000190190555b6001600160a01b038516156116b1576001600160a01b0385166000908152600360205260409020805460010190555b60008481526002602052604080822080546001600160a01b0319166001600160a01b0389811691821790925591518793918516917fddf252ad1be2c89b69c2b068fc378daa952ba7f163c4a11628f55a4df523b3ef91a4949350505050565b600061171b83610a4b565b60008381526007602052604090205490915080821461176e576001600160a01b03841660009081526006602090815260408083208584528252808320548484528184208190558352600790915290208190555b5060009182526007602090815260408084208490556001600160a01b039094168352600681528383209183525290812055565b6008546000906117b3906001906120ae565b600083815260096020526040812054600880549394509092849081106117db576117db611eee565b9060005260206000200154905080600883815481106117fc576117fc611eee565b6000918252602080832090910192909255828152600990915260408082208490558582528120556008805480611834576118346120c1565b6001900381819060005260206000200160009055905550505050565b6000600161185d84610a4b565b61186791906120ae565b6001600160a01b039093166000908152600660209081526040808320868452825280832085905593825260079052919091209190915550565b606060006118ad836119e7565b600101905060008167ffffffffffffffff8111156118cd576118cd611b22565b6040519080825280601f01601f1916602001820160405280156118f7576020820181803683370190505b5090508181016020015b600019016f181899199a1a9b1b9c1cb0b131b232b360811b600a86061a8153600a850494508461190157509392505050565b60006001600160e01b031982166380ac58cd60e01b148061196457506001600160e01b03198216635b5e139f60e01b145b8061070a57506301ffc9a760e01b6001600160e01b031983161461070a565b61198e838383611abf565b610986576001600160a01b0383166119bc57604051637e27328960e01b8152600481018290526024016105bb565b60405163177e802f60e01b81526001600160a01b0383166004820152602481018290526044016105bb565b60008072184f03e93ff9f4daa797ed6e38ed64bf6a1f0160401b8310611a265772184f03e93ff9f4daa797ed6e38ed64bf6a1f0160401b830492506040015b6d04ee2d6d415b85acef81000000008310611a52576d04ee2d6d415b85acef8100000000830492506020015b662386f26fc100008310611a7057662386f26fc10000830492506010015b6305f5e1008310611a88576305f5e100830492506008015b6127108310611a9c57612710830492506004015b60648310611aae576064830492506002015b600a831061070a5760010192915050565b60006001600160a01b03831615801590610ef65750826001600160a01b0316846001600160a01b03161480611af95750611af98484610de0565b80610ef65750506000908152600460205260409020546001600160a01b03908116911614919050565b634e487b7160e01b600052604160045260246000fd5b600067ffffffffffffffff80841115611b5357611b53611b22565b604051601f8501601f19908116603f01168101908282118183101715611b7b57611b7b611b22565b81604052809350858152868686011115611b9457600080fd5b858560208301376000602087830101525050509392505050565b80356001600160a01b0381168114611bc557600080fd5b919050565b600080600060608486031215611bdf57600080fd5b833567ffffffffffffffff811115611bf657600080fd5b8401601f81018613611c0757600080fd5b611c1686823560208401611b38565b935050611c2560208501611bae565b9150604084013590509250925092565b6001600160e01b031981168114610e1857600080fd5b600060208284031215611c5d57600080fd5b813561158681611c35565b60005b83811015611c83578181015183820152602001611c6b565b50506000910152565b60008151808452611ca4816020860160208601611c68565b601f01601f19169290920160200192915050565b6020815260006115866020830184611c8c565b600060208284031215611cdd57600080fd5b5035919050565b60008060408385031215611cf757600080fd5b611d0083611bae565b946020939093013593505050565b600080600060608486031215611d2357600080fd5b611d2c84611bae565b9250611c2560208501611bae565b600060208284031215611d4c57600080fd5b61158682611bae565b60008060408385031215611d6857600080fd5b82359150611d7860208401611bae565b90509250929050565b60008060408385031215611d9457600080fd5b50508035926020909101359150565b60008060408385031215611db657600080fd5b611dbf83611bae565b915060208301358015158114611dd457600080fd5b809150509250929050565b60008060008060808587031215611df557600080fd5b611dfe85611bae565b9350611e0c60208601611bae565b925060408501359150606085013567ffffffffffffffff811115611e2f57600080fd5b8501601f81018713611e4057600080fd5b611e4f87823560208401611b38565b91505092959194509250565b60008060408385031215611e6e57600080fd5b611e7783611bae565b9150611d7860208401611bae565b634e487b7160e01b600052601160045260246000fd5b600060018201611ead57611ead611e85565b5060010190565b600181811c90821680611ec857607f821691505b602082108103611ee857634e487b7160e01b600052602260045260246000fd5b50919050565b634e487b7160e01b600052603260045260246000fd5b8082018082111561070a5761070a611e85565b601f82111561098657600081815260208120601f850160051c81016020861015611f3e5750805b601f850160051c820191505b81811015611f5d57828155600101611f4a565b505050505050565b815167ffffffffffffffff811115611f7f57611f7f611b22565b611f9381611f8d8454611eb4565b84611f17565b602080601f831160018114611fc85760008415611fb05750858301515b600019600386901b1c1916600185901b178555611f5d565b600085815260208120601f198616915b82811015611ff757888601518255948401946001909101908401611fd8565b50858210156120155787850151600019600388901b60f8161c191681555b5050505050600190811b01905550565b6001600160a01b038581168252841660208201526040810183905260806060820181905260009061205890830184611c8c565b9695505050505050565b60006020828403121561207457600080fd5b815161158681611c35565b60008351612091818460208801611c68565b8351908301906120a5818360208801611c68565b01949350505050565b8181038181111561070a5761070a611e85565b634e487b7160e01b600052603160045260246000fdfea26469706673582212207b7eb1633edb66789b224fb4902ad58a1d2fc45add977fcafc49c873ba5ba14c64736f6c63430008140033",
  "devdoc": {
    "details": "Contract for managing fundraising causes using NFTs.",
    "errors": {
      "AccessControlBadConfirmation()": [
        {
          "details": "The caller of a function is not the expected one. NOTE: Don't confuse with {AccessControlUnauthorizedAccount}."
        }
      ],
      "AccessControlUnauthorizedAccount(address,bytes32)": [
        {
          "details": "The `account` is missing a role."
        }
      ],
      "ERC721EnumerableForbiddenBatchMint()": [
        {
          "details": "Batch mint is not allowed."
        }
      ],
      "ERC721IncorrectOwner(address,uint256,address)": [
        {
          "details": "Indicates an error related to the ownership over a particular token. Used in transfers.",
          "params": {
            "owner": "Address of the current owner of a token.",
            "sender": "Address whose tokens are being transferred.",
            "tokenId": "Identifier number of a token."
          }
        }
      ],
      "ERC721InsufficientApproval(address,uint256)": [
        {
          "details": "Indicates a failure with the `operator`s approval. Used in transfers.",
          "params": {
            "operator": "Address that may be allowed to operate on tokens without being their owner.",
            "tokenId": "Identifier number of a token."
          }
        }
      ],
      "ERC721InvalidApprover(address)": [
        {
          "details": "Indicates a failure with the `approver` of a token to be approved. Used in approvals.",
          "params": {
            "approver": "Address initiating an approval operation."
          }
        }
      ],
      "ERC721InvalidOperator(address)": [
        {
          "details": "Indicates a failure with the `operator` to be approved. Used in approvals.",
          "params": {
            "operator": "Address that may be allowed to operate on tokens without being their owner."
          }
        }
      ],
      "ERC721InvalidOwner(address)": [
        {
          "details": "Indicates that an address can't be an owner. For example, `address(0)` is a forbidden owner in EIP-20. Used in balance queries.",
          "params": {
            "owner": "Address of the current owner of a token."
          }
        }
      ],
      "ERC721InvalidReceiver(address)": [
        {
          "details": "Indicates a failure with the token `receiver`. Used in transfers.",
          "params": {
            "receiver": "Address to which tokens are being transferred."
          }
        }
      ],
      "ERC721InvalidSender(address)": [
        {
          "details": "Indicates a failure with the token `sender`. Used in transfers.",
          "params": {
            "sender": "Address whose tokens are being transferred."
          }
        }
      ],
      "ERC721NonexistentToken(uint256)": [
        {
          "details": "Indicates a `tokenId` whose `owner` is the zero address.",
          "params": {
            "tokenId": "Identifier number of a token."
          }
        }
      ],
      "ERC721OutOfBoundsIndex(address,uint256)": [
        {
          "details": "An `owner`'s token query was out of bounds for `index`. NOTE: The owner being `address(0)` indicates a global out of bounds index."
        }
      ]
    },
    "events": {
      "Approval(address,address,uint256)": {
        "details": "Emitted when `owner` enables `approved` to manage the `tokenId` token."
      },
      "ApprovalForAll(address,address,bool)": {
        "details": "Emitted when `owner` enables or disables (`approved`) `operator` to manage all of its assets."
      },
      "BatchMetadataUpdate(uint256,uint256)": {
        "details": "This event emits when the metadata of a range of tokens is changed. So that the third-party platforms such as NFT market could timely update the images and related attributes of the NFTs."
      },
      "MetadataUpdate(uint256)": {
        "details": "This event emits when the metadata of a token is changed. So that the third-party platforms such as NFT market could timely update the images and related attributes of the NFT."
      },
      "RoleAdminChanged(bytes32,bytes32,bytes32)": {
        "details": "Emitted when `newAdminRole` is set as ``role``'s admin role, replacing `previousAdminRole` `DEFAULT_ADMIN_ROLE` is the starting admin for all roles, despite {RoleAdminChanged} not being emitted signaling this."
      },
      "RoleGranted(bytes32,address,address)": {
        "details": "Emitted when `account` is granted `role`. `sender` is the account that originated the contract call, an admin role bearer except when using {AccessControl-_setupRole}."
      },
      "RoleRevoked(bytes32,address,address)": {
        "details": "Emitted when `account` is revoked `role`. `sender` is the account that originated the contract call:   - if using `revokeRole`, it is the admin role bearer   - if using `renounceRole`, it is the role bearer (i.e. `account`)"
      },
      "Transfer(address,address,uint256)": {
        "details": "Emitted when `tokenId` token is transferred from `from` to `to`."
      }
    },
    "kind": "dev",
    "methods": {
      "approve(address,uint256)": {
        "details": "See {IERC721-approve}."
      },
      "balanceOf(address)": {
        "details": "See {IERC721-balanceOf}."
      },
      "burn(uint256)": {
        "details": "Burns `tokenId`. See {ERC721-_burn}. Requirements: - The caller must own `tokenId` or be an approved operator."
      },
      "changeOwnership(address)": {
        "params": {
          "to": "The address of the new owner."
        }
      },
      "constructor": {
        "details": "Initializes the contract, setting up roles.",
        "params": {
          "initialOwner": "The address of the initial owner."
        }
      },
      "getApproved(uint256)": {
        "details": "See {IERC721-getApproved}."
      },
      "getFundraiser(uint256)": {
        "params": {
          "tokenId": "The ID of the cause token."
        },
        "returns": {
          "_0": "The address of the fundraiser."
        }
      },
      "getRoleAdmin(bytes32)": {
        "details": "Returns the admin role that controls `role`. See {grantRole} and {revokeRole}. To change a role's admin, use {_setRoleAdmin}."
      },
      "grantGivvestRole(address)": {
        "params": {
          "givvestContract": "The contract address to be granted the GIVVEST_ROLE."
        }
      },
      "grantMinterRole(address)": {
        "params": {
          "minter": "The address to be granted the minter role."
        }
      },
      "grantRole(bytes32,address)": {
        "details": "Grants `role` to `account`. If `account` had not been already granted `role`, emits a {RoleGranted} event. Requirements: - the caller must have ``role``'s admin role. May emit a {RoleGranted} event."
      },
      "hasRole(bytes32,address)": {
        "details": "Returns `true` if `account` has been granted `role`."
      },
      "isApprovedForAll(address,address)": {
        "details": "See {IERC721-isApprovedForAll}."
      },
      "name()": {
        "details": "See {IERC721Metadata-name}."
      },
      "ownerOf(uint256)": {
        "details": "See {IERC721-ownerOf}."
      },
      "raiseAmount(uint256,uint256)": {
        "params": {
          "amount": "The amount to raise.",
          "tokenId": "The ID of the cause token."
        }
      },
      "renounceRole(bytes32,address)": {
        "details": "Revokes `role` from the calling account. Roles are often managed via {grantRole} and {revokeRole}: this function's purpose is to provide a mechanism for accounts to lose their privileges if they are compromised (such as when a trusted device is misplaced). If the calling account had been revoked `role`, emits a {RoleRevoked} event. Requirements: - the caller must be `callerConfirmation`. May emit a {RoleRevoked} event."
      },
      "revokeRole(bytes32,address)": {
        "details": "Revokes `role` from `account`. If `account` had been granted `role`, emits a {RoleRevoked} event. Requirements: - the caller must have ``role``'s admin role. May emit a {RoleRevoked} event."
      },
      "safeMint(string,address,uint256)": {
        "params": {
          "amountNeeded": "The amount needed for the cause.",
          "fundraiser": "The address of the fundraiser.",
          "uri": "The URI of the token metadata."
        }
      },
      "safeTransferFrom(address,address,uint256)": {
        "details": "See {IERC721-safeTransferFrom}."
      },
      "safeTransferFrom(address,address,uint256,bytes)": {
        "details": "See {IERC721-safeTransferFrom}."
      },
      "setApprovalForAll(address,bool)": {
        "details": "See {IERC721-setApprovalForAll}."
      },
      "supportsInterface(bytes4)": {
        "details": "Override for `supportsInterface` function to ensure compatibility with multiple inheritance."
      },
      "symbol()": {
        "details": "See {IERC721Metadata-symbol}."
      },
      "toggleCauseState(uint256)": {
        "params": {
          "tokenId": "The ID of the cause token."
        }
      },
      "tokenByIndex(uint256)": {
        "details": "See {IERC721Enumerable-tokenByIndex}."
      },
      "tokenOfOwnerByIndex(address,uint256)": {
        "details": "See {IERC721Enumerable-tokenOfOwnerByIndex}."
      },
      "tokenURI(uint256)": {
        "params": {
          "tokenId": "The ID of the token."
        },
        "returns": {
          "_0": "The token URI."
        }
      },
      "totalSupply()": {
        "details": "See {IERC721Enumerable-totalSupply}."
      },
      "transferFrom(address,address,uint256)": {
        "details": "See {IERC721-transferFrom}."
      }
    },
    "title": "GivvestCause",
    "version": 1
  },
  "userdoc": {
    "kind": "user",
    "methods": {
      "changeOwnership(address)": {
        "notice": "Change the ownership of the contract to a new address."
      },
      "getFundraiser(uint256)": {
        "notice": "Get the address of the fundraiser for a specific cause."
      },
      "grantGivvestRole(address)": {
        "notice": "Grant the Givvest role to a contract address."
      },
      "grantMinterRole(address)": {
        "notice": "Grant the minter role to an address."
      },
      "raiseAmount(uint256,uint256)": {
        "notice": "Raise an amount for a specific cause."
      },
      "safeMint(string,address,uint256)": {
        "notice": "Safely mint a new token with cause details."
      },
      "toggleCauseState(uint256)": {
        "notice": "Toggle the active state of a cause."
      },
      "tokenURI(uint256)": {
        "notice": "Get the token URI for a specific token ID."
      }
    },
    "version": 1
  },
  "storageLayout": {
    "storage": [
      {
        "astId": 1608,
        "contract": "contracts/GivvestCause.sol:GivvestCause",
        "label": "_name",
        "offset": 0,
        "slot": "0",
        "type": "t_string_storage"
      },
      {
        "astId": 1610,
        "contract": "contracts/GivvestCause.sol:GivvestCause",
        "label": "_symbol",
        "offset": 0,
        "slot": "1",
        "type": "t_string_storage"
      },
      {
        "astId": 1614,
        "contract": "contracts/GivvestCause.sol:GivvestCause",
        "label": "_owners",
        "offset": 0,
        "slot": "2",
        "type": "t_mapping(t_uint256,t_address)"
      },
      {
        "astId": 1618,
        "contract": "contracts/GivvestCause.sol:GivvestCause",
        "label": "_balances",
        "offset": 0,
        "slot": "3",
        "type": "t_mapping(t_address,t_uint256)"
      },
      {
        "astId": 1622,
        "contract": "contracts/GivvestCause.sol:GivvestCause",
        "label": "_tokenApprovals",
        "offset": 0,
        "slot": "4",
        "type": "t_mapping(t_uint256,t_address)"
      },
      {
        "astId": 1628,
        "contract": "contracts/GivvestCause.sol:GivvestCause",
        "label": "_operatorApprovals",
        "offset": 0,
        "slot": "5",
        "type": "t_mapping(t_address,t_mapping(t_address,t_bool))"
      },
      {
        "astId": 2767,
        "contract": "contracts/GivvestCause.sol:GivvestCause",
        "label": "_ownedTokens",
        "offset": 0,
        "slot": "6",
        "type": "t_mapping(t_address,t_mapping(t_uint256,t_uint256))"
      },
      {
        "astId": 2771,
        "contract": "contracts/GivvestCause.sol:GivvestCause",
        "label": "_ownedTokensIndex",
        "offset": 0,
        "slot": "7",
        "type": "t_mapping(t_uint256,t_uint256)"
      },
      {
        "astId": 2774,
        "contract": "contracts/GivvestCause.sol:GivvestCause",
        "label": "_allTokens",
        "offset": 0,
        "slot": "8",
        "type": "t_array(t_uint256)dyn_storage"
      },
      {
        "astId": 2778,
        "contract": "contracts/GivvestCause.sol:GivvestCause",
        "label": "_allTokensIndex",
        "offset": 0,
        "slot": "9",
        "type": "t_mapping(t_uint256,t_uint256)"
      },
      {
        "astId": 3160,
        "contract": "contracts/GivvestCause.sol:GivvestCause",
        "label": "_tokenURIs",
        "offset": 0,
        "slot": "10",
        "type": "t_mapping(t_uint256,t_string_storage)"
      },
      {
        "astId": 26,
        "contract": "contracts/GivvestCause.sol:GivvestCause",
        "label": "_roles",
        "offset": 0,
        "slot": "11",
        "type": "t_mapping(t_bytes32,t_struct(RoleData)21_storage)"
      },
      {
        "astId": 7176,
        "contract": "contracts/GivvestCause.sol:GivvestCause",
        "label": "_nextTokenId",
        "offset": 0,
        "slot": "12",
        "type": "t_uint256"
      },
      {
        "astId": 7181,
        "contract": "contracts/GivvestCause.sol:GivvestCause",
        "label": "causes",
        "offset": 0,
        "slot": "13",
        "type": "t_mapping(t_uint256,t_struct(Cause)7164_storage)"
      }
    ],
    "types": {
      "t_address": {
        "encoding": "inplace",
        "label": "address",
        "numberOfBytes": "20"
      },
      "t_array(t_uint256)dyn_storage": {
        "base": "t_uint256",
        "encoding": "dynamic_array",
        "label": "uint256[]",
        "numberOfBytes": "32"
      },
      "t_bool": {
        "encoding": "inplace",
        "label": "bool",
        "numberOfBytes": "1"
      },
      "t_bytes32": {
        "encoding": "inplace",
        "label": "bytes32",
        "numberOfBytes": "32"
      },
      "t_mapping(t_address,t_bool)": {
        "encoding": "mapping",
        "key": "t_address",
        "label": "mapping(address => bool)",
        "numberOfBytes": "32",
        "value": "t_bool"
      },
      "t_mapping(t_address,t_mapping(t_address,t_bool))": {
        "encoding": "mapping",
        "key": "t_address",
        "label": "mapping(address => mapping(address => bool))",
        "numberOfBytes": "32",
        "value": "t_mapping(t_address,t_bool)"
      },
      "t_mapping(t_address,t_mapping(t_uint256,t_uint256))": {
        "encoding": "mapping",
        "key": "t_address",
        "label": "mapping(address => mapping(uint256 => uint256))",
        "numberOfBytes": "32",
        "value": "t_mapping(t_uint256,t_uint256)"
      },
      "t_mapping(t_address,t_uint256)": {
        "encoding": "mapping",
        "key": "t_address",
        "label": "mapping(address => uint256)",
        "numberOfBytes": "32",
        "value": "t_uint256"
      },
      "t_mapping(t_bytes32,t_struct(RoleData)21_storage)": {
        "encoding": "mapping",
        "key": "t_bytes32",
        "label": "mapping(bytes32 => struct AccessControl.RoleData)",
        "numberOfBytes": "32",
        "value": "t_struct(RoleData)21_storage"
      },
      "t_mapping(t_uint256,t_address)": {
        "encoding": "mapping",
        "key": "t_uint256",
        "label": "mapping(uint256 => address)",
        "numberOfBytes": "32",
        "value": "t_address"
      },
      "t_mapping(t_uint256,t_string_storage)": {
        "encoding": "mapping",
        "key": "t_uint256",
        "label": "mapping(uint256 => string)",
        "numberOfBytes": "32",
        "value": "t_string_storage"
      },
      "t_mapping(t_uint256,t_struct(Cause)7164_storage)": {
        "encoding": "mapping",
        "key": "t_uint256",
        "label": "mapping(uint256 => struct GivvestCause.Cause)",
        "numberOfBytes": "32",
        "value": "t_struct(Cause)7164_storage"
      },
      "t_mapping(t_uint256,t_uint256)": {
        "encoding": "mapping",
        "key": "t_uint256",
        "label": "mapping(uint256 => uint256)",
        "numberOfBytes": "32",
        "value": "t_uint256"
      },
      "t_string_storage": {
        "encoding": "bytes",
        "label": "string",
        "numberOfBytes": "32"
      },
      "t_struct(Cause)7164_storage": {
        "encoding": "inplace",
        "label": "struct GivvestCause.Cause",
        "members": [
          {
            "astId": 7157,
            "contract": "contracts/GivvestCause.sol:GivvestCause",
            "label": "fundraiser",
            "offset": 0,
            "slot": "0",
            "type": "t_address"
          },
          {
            "astId": 7159,
            "contract": "contracts/GivvestCause.sol:GivvestCause",
            "label": "amountNeeded",
            "offset": 0,
            "slot": "1",
            "type": "t_uint256"
          },
          {
            "astId": 7161,
            "contract": "contracts/GivvestCause.sol:GivvestCause",
            "label": "amountRaised",
            "offset": 0,
            "slot": "2",
            "type": "t_uint256"
          },
          {
            "astId": 7163,
            "contract": "contracts/GivvestCause.sol:GivvestCause",
            "label": "isActive",
            "offset": 0,
            "slot": "3",
            "type": "t_bool"
          }
        ],
        "numberOfBytes": "128"
      },
      "t_struct(RoleData)21_storage": {
        "encoding": "inplace",
        "label": "struct AccessControl.RoleData",
        "members": [
          {
            "astId": 18,
            "contract": "contracts/GivvestCause.sol:GivvestCause",
            "label": "hasRole",
            "offset": 0,
            "slot": "0",
            "type": "t_mapping(t_address,t_bool)"
          },
          {
            "astId": 20,
            "contract": "contracts/GivvestCause.sol:GivvestCause",
            "label": "adminRole",
            "offset": 0,
            "slot": "1",
            "type": "t_bytes32"
          }
        ],
        "numberOfBytes": "64"
      },
      "t_uint256": {
        "encoding": "inplace",
        "label": "uint256",
        "numberOfBytes": "32"
      }
    }
  }
}