{
  "address": "0xF7444b32892DD04EeF8bd16140fc6b7c5CC0aC51",
  "abi": [
    {
      "inputs": [
        {
          "internalType": "address",
          "name": "initialOwner",
          "type": "address"
        },
        {
          "internalType": "address",
          "name": "givvestCoinAddress",
          "type": "address"
        },
        {
          "internalType": "address",
          "name": "givvestCauseAddress",
          "type": "address"
        }
      ],
      "stateMutability": "nonpayable",
      "type": "constructor"
    },
    {
      "inputs": [],
      "name": "ERC721EnumerableForbiddenBatchMint",
      "type": "error"
    },
    {
      "inputs": [
        {
          "internalType": "address",
          "name": "sender",
          "type": "address"
        },
        {
          "internalType": "uint256",
          "name": "tokenId",
          "type": "uint256"
        },
        {
          "internalType": "address",
          "name": "owner",
          "type": "address"
        }
      ],
      "name": "ERC721IncorrectOwner",
      "type": "error"
    },
    {
      "inputs": [
        {
          "internalType": "address",
          "name": "operator",
          "type": "address"
        },
        {
          "internalType": "uint256",
          "name": "tokenId",
          "type": "uint256"
        }
      ],
      "name": "ERC721InsufficientApproval",
      "type": "error"
    },
    {
      "inputs": [
        {
          "internalType": "address",
          "name": "approver",
          "type": "address"
        }
      ],
      "name": "ERC721InvalidApprover",
      "type": "error"
    },
    {
      "inputs": [
        {
          "internalType": "address",
          "name": "operator",
          "type": "address"
        }
      ],
      "name": "ERC721InvalidOperator",
      "type": "error"
    },
    {
      "inputs": [
        {
          "internalType": "address",
          "name": "owner",
          "type": "address"
        }
      ],
      "name": "ERC721InvalidOwner",
      "type": "error"
    },
    {
      "inputs": [
        {
          "internalType": "address",
          "name": "receiver",
          "type": "address"
        }
      ],
      "name": "ERC721InvalidReceiver",
      "type": "error"
    },
    {
      "inputs": [
        {
          "internalType": "address",
          "name": "sender",
          "type": "address"
        }
      ],
      "name": "ERC721InvalidSender",
      "type": "error"
    },
    {
      "inputs": [
        {
          "internalType": "uint256",
          "name": "tokenId",
          "type": "uint256"
        }
      ],
      "name": "ERC721NonexistentToken",
      "type": "error"
    },
    {
      "inputs": [
        {
          "internalType": "address",
          "name": "owner",
          "type": "address"
        },
        {
          "internalType": "uint256",
          "name": "index",
          "type": "uint256"
        }
      ],
      "name": "ERC721OutOfBoundsIndex",
      "type": "error"
    },
    {
      "inputs": [
        {
          "internalType": "address",
          "name": "owner",
          "type": "address"
        }
      ],
      "name": "OwnableInvalidOwner",
      "type": "error"
    },
    {
      "inputs": [
        {
          "internalType": "address",
          "name": "account",
          "type": "address"
        }
      ],
      "name": "OwnableUnauthorizedAccount",
      "type": "error"
    },
    {
      "anonymous": false,
      "inputs": [
        {
          "indexed": true,
          "internalType": "address",
          "name": "owner",
          "type": "address"
        },
        {
          "indexed": true,
          "internalType": "address",
          "name": "approved",
          "type": "address"
        },
        {
          "indexed": true,
          "internalType": "uint256",
          "name": "tokenId",
          "type": "uint256"
        }
      ],
      "name": "Approval",
      "type": "event"
    },
    {
      "anonymous": false,
      "inputs": [
        {
          "indexed": true,
          "internalType": "address",
          "name": "owner",
          "type": "address"
        },
        {
          "indexed": true,
          "internalType": "address",
          "name": "operator",
          "type": "address"
        },
        {
          "indexed": false,
          "internalType": "bool",
          "name": "approved",
          "type": "bool"
        }
      ],
      "name": "ApprovalForAll",
      "type": "event"
    },
    {
      "anonymous": false,
      "inputs": [
        {
          "indexed": true,
          "internalType": "address",
          "name": "donor",
          "type": "address"
        },
        {
          "indexed": false,
          "internalType": "uint256",
          "name": "tokenId",
          "type": "uint256"
        }
      ],
      "name": "DonationListed",
      "type": "event"
    },
    {
      "anonymous": false,
      "inputs": [
        {
          "indexed": true,
          "internalType": "address",
          "name": "donor",
          "type": "address"
        },
        {
          "indexed": false,
          "internalType": "uint256",
          "name": "tokenId",
          "type": "uint256"
        },
        {
          "indexed": false,
          "internalType": "uint256",
          "name": "amount",
          "type": "uint256"
        },
        {
          "indexed": false,
          "internalType": "uint256",
          "name": "causeId",
          "type": "uint256"
        }
      ],
      "name": "DonationMinted",
      "type": "event"
    },
    {
      "anonymous": false,
      "inputs": [
        {
          "indexed": true,
          "internalType": "address",
          "name": "donor",
          "type": "address"
        },
        {
          "indexed": false,
          "internalType": "uint256",
          "name": "tokenId",
          "type": "uint256"
        },
        {
          "indexed": false,
          "internalType": "uint256",
          "name": "amount",
          "type": "uint256"
        }
      ],
      "name": "DonationPermanent",
      "type": "event"
    },
    {
      "anonymous": false,
      "inputs": [
        {
          "indexed": true,
          "internalType": "address",
          "name": "previousOwner",
          "type": "address"
        },
        {
          "indexed": true,
          "internalType": "address",
          "name": "newOwner",
          "type": "address"
        }
      ],
      "name": "OwnershipTransferred",
      "type": "event"
    },
    {
      "anonymous": false,
      "inputs": [
        {
          "indexed": true,
          "internalType": "address",
          "name": "from",
          "type": "address"
        },
        {
          "indexed": true,
          "internalType": "address",
          "name": "to",
          "type": "address"
        },
        {
          "indexed": true,
          "internalType": "uint256",
          "name": "tokenId",
          "type": "uint256"
        }
      ],
      "name": "Transfer",
      "type": "event"
    },
    {
      "inputs": [
        {
          "internalType": "address",
          "name": "to",
          "type": "address"
        },
        {
          "internalType": "uint256",
          "name": "tokenId",
          "type": "uint256"
        }
      ],
      "name": "approve",
      "outputs": [],
      "stateMutability": "nonpayable",
      "type": "function"
    },
    {
      "inputs": [
        {
          "internalType": "address",
          "name": "owner",
          "type": "address"
        }
      ],
      "name": "balanceOf",
      "outputs": [
        {
          "internalType": "uint256",
          "name": "",
          "type": "uint256"
        }
      ],
      "stateMutability": "view",
      "type": "function"
    },
    {
      "inputs": [
        {
          "internalType": "uint256",
          "name": "tokenId",
          "type": "uint256"
        }
      ],
      "name": "burn",
      "outputs": [],
      "stateMutability": "nonpayable",
      "type": "function"
    },
    {
      "inputs": [
        {
          "internalType": "uint256",
          "name": "causeId",
          "type": "uint256"
        }
      ],
      "name": "donateToCause",
      "outputs": [],
      "stateMutability": "payable",
      "type": "function"
    },
    {
      "inputs": [
        {
          "internalType": "uint256",
          "name": "tokenId",
          "type": "uint256"
        }
      ],
      "name": "donateToDonationNFT",
      "outputs": [],
      "stateMutability": "payable",
      "type": "function"
    },
    {
      "inputs": [
        {
          "internalType": "uint256",
          "name": "",
          "type": "uint256"
        }
      ],
      "name": "donationNFTs",
      "outputs": [
        {
          "internalType": "uint256",
          "name": "amount",
          "type": "uint256"
        },
        {
          "internalType": "uint256",
          "name": "causeId",
          "type": "uint256"
        },
        {
          "internalType": "bool",
          "name": "listedForRedemption",
          "type": "bool"
        }
      ],
      "stateMutability": "view",
      "type": "function"
    },
    {
      "inputs": [
        {
          "internalType": "uint256",
          "name": "tokenId",
          "type": "uint256"
        }
      ],
      "name": "getApproved",
      "outputs": [
        {
          "internalType": "address",
          "name": "",
          "type": "address"
        }
      ],
      "stateMutability": "view",
      "type": "function"
    },
    {
      "inputs": [],
      "name": "givvestCauseContract",
      "outputs": [
        {
          "internalType": "contract IGivvestCause",
          "name": "",
          "type": "address"
        }
      ],
      "stateMutability": "view",
      "type": "function"
    },
    {
      "inputs": [],
      "name": "givvestCoinContract",
      "outputs": [
        {
          "internalType": "contract IGivvestCoin",
          "name": "",
          "type": "address"
        }
      ],
      "stateMutability": "view",
      "type": "function"
    },
    {
      "inputs": [
        {
          "internalType": "address",
          "name": "owner",
          "type": "address"
        },
        {
          "internalType": "address",
          "name": "operator",
          "type": "address"
        }
      ],
      "name": "isApprovedForAll",
      "outputs": [
        {
          "internalType": "bool",
          "name": "",
          "type": "bool"
        }
      ],
      "stateMutability": "view",
      "type": "function"
    },
    {
      "inputs": [
        {
          "internalType": "uint256",
          "name": "",
          "type": "uint256"
        }
      ],
      "name": "isPermanent",
      "outputs": [
        {
          "internalType": "bool",
          "name": "",
          "type": "bool"
        }
      ],
      "stateMutability": "view",
      "type": "function"
    },
    {
      "inputs": [
        {
          "internalType": "uint256",
          "name": "tokenId",
          "type": "uint256"
        }
      ],
      "name": "listForRedemption",
      "outputs": [],
      "stateMutability": "nonpayable",
      "type": "function"
    },
    {
      "inputs": [
        {
          "internalType": "uint256",
          "name": "tokenId",
          "type": "uint256"
        }
      ],
      "name": "makeDonationPermanent",
      "outputs": [],
      "stateMutability": "nonpayable",
      "type": "function"
    },
    {
      "inputs": [],
      "name": "name",
      "outputs": [
        {
          "internalType": "string",
          "name": "",
          "type": "string"
        }
      ],
      "stateMutability": "view",
      "type": "function"
    },
    {
      "inputs": [],
      "name": "owner",
      "outputs": [
        {
          "internalType": "address",
          "name": "",
          "type": "address"
        }
      ],
      "stateMutability": "view",
      "type": "function"
    },
    {
      "inputs": [
        {
          "internalType": "uint256",
          "name": "tokenId",
          "type": "uint256"
        }
      ],
      "name": "ownerOf",
      "outputs": [
        {
          "internalType": "address",
          "name": "",
          "type": "address"
        }
      ],
      "stateMutability": "view",
      "type": "function"
    },
    {
      "inputs": [],
      "name": "renounceOwnership",
      "outputs": [],
      "stateMutability": "nonpayable",
      "type": "function"
    },
    {
      "inputs": [
        {
          "internalType": "address",
          "name": "from",
          "type": "address"
        },
        {
          "internalType": "address",
          "name": "to",
          "type": "address"
        },
        {
          "internalType": "uint256",
          "name": "tokenId",
          "type": "uint256"
        }
      ],
      "name": "safeTransferFrom",
      "outputs": [],
      "stateMutability": "nonpayable",
      "type": "function"
    },
    {
      "inputs": [
        {
          "internalType": "address",
          "name": "from",
          "type": "address"
        },
        {
          "internalType": "address",
          "name": "to",
          "type": "address"
        },
        {
          "internalType": "uint256",
          "name": "tokenId",
          "type": "uint256"
        },
        {
          "internalType": "bytes",
          "name": "data",
          "type": "bytes"
        }
      ],
      "name": "safeTransferFrom",
      "outputs": [],
      "stateMutability": "nonpayable",
      "type": "function"
    },
    {
      "inputs": [
        {
          "internalType": "address",
          "name": "operator",
          "type": "address"
        },
        {
          "internalType": "bool",
          "name": "approved",
          "type": "bool"
        }
      ],
      "name": "setApprovalForAll",
      "outputs": [],
      "stateMutability": "nonpayable",
      "type": "function"
    },
    {
      "inputs": [
        {
          "internalType": "bytes4",
          "name": "interfaceId",
          "type": "bytes4"
        }
      ],
      "name": "supportsInterface",
      "outputs": [
        {
          "internalType": "bool",
          "name": "",
          "type": "bool"
        }
      ],
      "stateMutability": "view",
      "type": "function"
    },
    {
      "inputs": [],
      "name": "symbol",
      "outputs": [
        {
          "internalType": "string",
          "name": "",
          "type": "string"
        }
      ],
      "stateMutability": "view",
      "type": "function"
    },
    {
      "inputs": [
        {
          "internalType": "uint256",
          "name": "index",
          "type": "uint256"
        }
      ],
      "name": "tokenByIndex",
      "outputs": [
        {
          "internalType": "uint256",
          "name": "",
          "type": "uint256"
        }
      ],
      "stateMutability": "view",
      "type": "function"
    },
    {
      "inputs": [
        {
          "internalType": "address",
          "name": "owner",
          "type": "address"
        },
        {
          "internalType": "uint256",
          "name": "index",
          "type": "uint256"
        }
      ],
      "name": "tokenOfOwnerByIndex",
      "outputs": [
        {
          "internalType": "uint256",
          "name": "",
          "type": "uint256"
        }
      ],
      "stateMutability": "view",
      "type": "function"
    },
    {
      "inputs": [
        {
          "internalType": "uint256",
          "name": "tokenId",
          "type": "uint256"
        }
      ],
      "name": "tokenURI",
      "outputs": [
        {
          "internalType": "string",
          "name": "",
          "type": "string"
        }
      ],
      "stateMutability": "view",
      "type": "function"
    },
    {
      "inputs": [],
      "name": "totalSupply",
      "outputs": [
        {
          "internalType": "uint256",
          "name": "",
          "type": "uint256"
        }
      ],
      "stateMutability": "view",
      "type": "function"
    },
    {
      "inputs": [
        {
          "internalType": "address",
          "name": "from",
          "type": "address"
        },
        {
          "internalType": "address",
          "name": "to",
          "type": "address"
        },
        {
          "internalType": "uint256",
          "name": "tokenId",
          "type": "uint256"
        }
      ],
      "name": "transferFrom",
      "outputs": [],
      "stateMutability": "nonpayable",
      "type": "function"
    },
    {
      "inputs": [
        {
          "internalType": "address",
          "name": "newOwner",
          "type": "address"
        }
      ],
      "name": "transferOwnership",
      "outputs": [],
      "stateMutability": "nonpayable",
      "type": "function"
    }
  ],
  "transactionHash": "0xdf5cf1e34f1baf2e758959e2e405131737ab0e4b85c2bcdb20bae2df4efda94a",
  "args": [
    "0x737d5228E70f35FFA5eB4BCE5eCF0aC4178DcF9e",
    "0x10c892Fb014e9a7AD53EeF70fAcAcD8B277404A3",
    "0x6FacC85DEd6d47A84CD9390053ff8f7461A55504"
  ],
  "numDeployments": 1,
  "solcInputHash": "d89610ed66899049c949ccbe8d891d39",
  "bytecode": "0x60806040523480156200001157600080fd5b506040516200236338038062002363833981016040819052620000349162000179565b826040518060400160405280600a81526020016911da5d9d995cdd13919560b21b8152506040518060400160405280600581526020016411d593919560da1b815250816000908162000087919062000268565b50600162000096828262000268565b5050506001600160a01b038116620000c857604051631e4fbdf760e01b81526000600482015260240160405180910390fd5b620000d3816200010a565b50600b80546001600160a01b039283166001600160a01b031991821617909155600c80549390921692169190911790555062000334565b600a80546001600160a01b038381166001600160a01b0319831681179093556040519116919082907f8be0079c531659141344cd1fd0a4f28419497f9722a3daafe3b4186f6b6457e090600090a35050565b80516001600160a01b03811681146200017457600080fd5b919050565b6000806000606084860312156200018f57600080fd5b6200019a846200015c565b9250620001aa602085016200015c565b9150620001ba604085016200015c565b90509250925092565b634e487b7160e01b600052604160045260246000fd5b600181811c90821680620001ee57607f821691505b6020821081036200020f57634e487b7160e01b600052602260045260246000fd5b50919050565b601f8211156200026357600081815260208120601f850160051c810160208610156200023e5750805b601f850160051c820191505b818110156200025f578281556001016200024a565b5050505b505050565b81516001600160401b03811115620002845762000284620001c3565b6200029c81620002958454620001d9565b8462000215565b602080601f831160018114620002d45760008415620002bb5750858301515b600019600386901b1c1916600185901b1785556200025f565b600085815260208120601f198616915b828110156200030557888601518255948401946001909101908401620002e4565b5085821015620003245787850151600019600388901b60f8161c191681555b5050505050600190811b01905550565b61201f80620003446000396000f3fe6080604052600436106101b75760003560e01c806370a08231116100ec57806395d89b411161008a578063b972067a11610064578063b972067a14610506578063c87b56dd14610526578063e985e9c514610546578063f2fde38b1461056657600080fd5b806395d89b41146104b1578063a22cb465146104c6578063b88d4fde146104e657600080fd5b8063820361a0116100c6578063820361a014610404578063821481b2146104175780638cbcc395146104375780638da5cb5b1461049357600080fd5b806370a08231146103bc578063715018a6146103dc5780637e84f47b146103f157600080fd5b80632ba2dedd1161015957806342842e0e1161013357806342842e0e1461033c57806342966c681461035c5780634f6ccce71461037c5780636352211e1461039c57600080fd5b80632ba2dedd146102cc5780632e469c17146102fc5780632f745c591461031c57600080fd5b8063081812fc11610195578063081812fc1461024b578063095ea7b31461026b57806318160ddd1461028d57806323b872dd146102ac57600080fd5b806301ffc9a7146101bc57806305dcdd1d146101f157806306fdde0314610229575b600080fd5b3480156101c857600080fd5b506101dc6101d7366004611a88565b610586565b60405190151581526020015b60405180910390f35b3480156101fd57600080fd5b50600c54610211906001600160a01b031681565b6040516001600160a01b0390911681526020016101e8565b34801561023557600080fd5b5061023e610597565b6040516101e89190611af5565b34801561025757600080fd5b50610211610266366004611b08565b610629565b34801561027757600080fd5b5061028b610286366004611b36565b610652565b005b34801561029957600080fd5b506008545b6040519081526020016101e8565b3480156102b857600080fd5b5061028b6102c7366004611b62565b610661565b3480156102d857600080fd5b506101dc6102e7366004611b08565b600f6020526000908152604090205460ff1681565b34801561030857600080fd5b50600b54610211906001600160a01b031681565b34801561032857600080fd5b5061029e610337366004611b36565b6106f1565b34801561034857600080fd5b5061028b610357366004611b62565b610756565b34801561036857600080fd5b5061028b610377366004611b08565b610776565b34801561038857600080fd5b5061029e610397366004611b08565b610782565b3480156103a857600080fd5b506102116103b7366004611b08565b6107db565b3480156103c857600080fd5b5061029e6103d7366004611ba3565b6107e6565b3480156103e857600080fd5b5061028b61082e565b61028b6103ff366004611b08565b610842565b61028b610412366004611b08565b6109eb565b34801561042357600080fd5b5061028b610432366004611b08565b610c2c565b34801561044357600080fd5b50610476610452366004611b08565b600e6020526000908152604090208054600182015460029092015490919060ff1683565b6040805193845260208401929092521515908201526060016101e8565b34801561049f57600080fd5b50600a546001600160a01b0316610211565b3480156104bd57600080fd5b5061023e610da1565b3480156104d257600080fd5b5061028b6104e1366004611bc0565b610db0565b3480156104f257600080fd5b5061028b610501366004611c41565b610dbb565b34801561051257600080fd5b5061028b610521366004611b08565b610dd2565b34801561053257600080fd5b5061023e610541366004611b08565b610ead565b34801561055257600080fd5b506101dc610561366004611d09565b610f22565b34801561057257600080fd5b5061028b610581366004611ba3565b610f50565b600061059182610f8b565b92915050565b6060600080546105a690611d37565b80601f01602080910402602001604051908101604052809291908181526020018280546105d290611d37565b801561061f5780601f106105f45761010080835404028352916020019161061f565b820191906000526020600020905b81548152906001019060200180831161060257829003601f168201915b5050505050905090565b600061063482610fb0565b506000828152600460205260409020546001600160a01b0316610591565b61065d828233610fe9565b5050565b6001600160a01b03821661069057604051633250574960e11b8152600060048201526024015b60405180910390fd5b600061069d838333610ff6565b9050836001600160a01b0316816001600160a01b0316146106eb576040516364283d7b60e01b81526001600160a01b0380861660048301526024820184905282166044820152606401610687565b50505050565b60006106fc836107e6565b821061072d5760405163295f44f760e21b81526001600160a01b038416600482015260248101839052604401610687565b506001600160a01b03919091166000908152600660209081526040808320938352929052205490565b61077183838360405180602001604052806000815250610dbb565b505050565b61065d60008233610ff6565b600061078d60085490565b82106107b65760405163295f44f760e21b81526000600482015260248101839052604401610687565b600882815481106107c9576107c9611d71565b90600052602060002001549050919050565b600061059182610fb0565b60006001600160a01b038216610812576040516322718ad960e21b815260006004820152602401610687565b506001600160a01b031660009081526003602052604090205490565b61083661100b565b6108406000611038565b565b600034116108625760405162461bcd60e51b815260040161068790611d87565b6000818152600f6020526040902054819060ff16156108935760405162461bcd60e51b815260040161068790611dc9565b6000828152600e60205260409020543411156108fd5760405162461bcd60e51b815260206004820152602360248201527f446f6e6174696f6e20616d6f756e74206973206d6f7265207468616e206e656560448201526219195960ea1b6064820152608401610687565b6000828152600e60205260408120805434929061091b908490611e16565b90915550506000828152600e602052604090206001015461093b9061108a565b6000610946836107db565b90506000816001600160a01b03163460405160006040518083038185875af1925050503d8060008114610995576040519150601f19603f3d011682016040523d82523d6000602084013e61099a565b606091505b50509050806106eb5760405162461bcd60e51b815260206004820152601860248201527f5472616e7366657220746f20646f6e6f72206661696c656400000000000000006044820152606401610687565b60003411610a0b5760405162461bcd60e51b815260040161068790611d87565b600b54604051639c6bb72d60e01b8152600481018390523460248201526001600160a01b0390911690639c6bb72d90604401600060405180830381600087803b158015610a5757600080fd5b505af1925050508015610a68575060015b610b1657610a74611e29565b806308c379a003610aad5750610a88611e45565b80610a935750610aaf565b8060405162461bcd60e51b81526004016106879190611af5565b505b3d808015610ad9576040519150601f19603f3d011682016040523d82523d6000602084013e610ade565b606091505b5080604051602001610af09190611ecf565b60408051601f198184030181529082905262461bcd60e51b825261068791600401611af5565b610b1f8161108a565b600b54604051631504001360e31b8152600481018390526000916001600160a01b03169063a820009890602401602060405180830381865afa158015610b69573d6000803e3d6000fd5b505050506040513d601f19601f82011682018060405250810190610b8d9190611f14565b90506000816001600160a01b03163460405160006040518083038185875af1925050503d8060008114610bdc576040519150601f19603f3d011682016040523d82523d6000602084013e610be1565b606091505b50509050806107715760405162461bcd60e51b8152602060048201526014602482015273119d5b99081d1c985b9cd9995c8819985a5b195960621b6044820152606401610687565b50565b80610c36816107db565b6001600160a01b0316336001600160a01b031614610c865760405162461bcd60e51b815260206004820152600d60248201526c2737ba103a3432903237b737b960991b6044820152606401610687565b6000828152600f6020526040902054829060ff1615610cb75760405162461bcd60e51b815260040161068790611dc9565b6000838152600e6020818152604080842060028101805460ff19908116909155600f8452948290208054909516600117909455600c5492909152915491516340c10f1960e01b815233600482015260248101929092526001600160a01b0316906340c10f1990604401600060405180830381600087803b158015610d3a57600080fd5b505af1158015610d4e573d6000803e3d6000fd5b5050506000848152600e6020908152604091829020548251878152918201523392507f9bd3d429b2cbab430f0900568bb0b79986b8f062f7159ac0e45a92316f78983091015b60405180910390a2505050565b6060600180546105a690611d37565b61065d338383611136565b610dc6848484610661565b6106eb848484846111d5565b80610ddc816107db565b6001600160a01b0316336001600160a01b031614610e2c5760405162461bcd60e51b815260206004820152600d60248201526c2737ba103a3432903237b737b960991b6044820152606401610687565b6000828152600f6020526040902054829060ff1615610e5d5760405162461bcd60e51b815260040161068790611dc9565b6000838152600e602052604090819020600201805460ff191660011790555133907f1e2fcfe305c2e5a51f790d85a662f2f47615421b36605352696cee6222d1632a90610d949086815260200190565b6060610eb882610fb0565b506000610ed060408051602081019091526000815290565b90506000815111610ef05760405180602001604052806000815250610f1b565b80610efa846112fe565b604051602001610f0b929190611f31565b6040516020818303038152906040525b9392505050565b6001600160a01b03918216600090815260056020908152604080832093909416825291909152205460ff1690565b610f5861100b565b6001600160a01b038116610f8257604051631e4fbdf760e01b815260006004820152602401610687565b610c2981611038565b60006001600160e01b0319821663780e9d6360e01b1480610591575061059182611391565b6000818152600260205260408120546001600160a01b03168061059157604051637e27328960e01b815260048101849052602401610687565b61077183838360016113e1565b60006110038484846114e7565b949350505050565b600a546001600160a01b031633146108405760405163118cdaa760e01b8152336004820152602401610687565b600a80546001600160a01b038381166001600160a01b0319831681179093556040519116919082907f8be0079c531659141344cd1fd0a4f28419497f9722a3daafe3b4186f6b6457e090600090a35050565b600d80546000918261109b83611f60565b9190505590506110ab33826115b4565b60408051606080820183523480835260208084018781526000858701818152888252600e8452908790209551865590516001860155516002909401805460ff19169415159490941790935583518581529283015291810184905233917f03c5948a06d8e5a6b4379faba14f6475b01e432be29e56ea28f5487459df0be1910160405180910390a25050565b6001600160a01b03821661116857604051630b61174360e31b81526001600160a01b0383166004820152602401610687565b6001600160a01b03838116600081815260056020908152604080832094871680845294825291829020805460ff191686151590811790915591519182527f17307eab39ab6107e8899845ad3d59bd9653f200f220920489ca2b5937696c31910160405180910390a3505050565b6001600160a01b0383163b156106eb57604051630a85bd0160e11b81526001600160a01b0384169063150b7a0290611217903390889087908790600401611f79565b6020604051808303816000875af1925050508015611252575060408051601f3d908101601f1916820190925261124f91810190611fb6565b60015b6112bb573d808015611280576040519150601f19603f3d011682016040523d82523d6000602084013e611285565b606091505b5080516000036112b357604051633250574960e11b81526001600160a01b0385166004820152602401610687565b805181602001fd5b6001600160e01b03198116630a85bd0160e11b146112f757604051633250574960e11b81526001600160a01b0385166004820152602401610687565b5050505050565b6060600061130b836115ce565b600101905060008167ffffffffffffffff81111561132b5761132b611bfe565b6040519080825280601f01601f191660200182016040528015611355576020820181803683370190505b5090508181016020015b600019016f181899199a1a9b1b9c1cb0b131b232b360811b600a86061a8153600a850494508461135f57509392505050565b60006001600160e01b031982166380ac58cd60e01b14806113c257506001600160e01b03198216635b5e139f60e01b145b8061059157506301ffc9a760e01b6001600160e01b0319831614610591565b80806113f557506001600160a01b03821615155b156114b757600061140584610fb0565b90506001600160a01b038316158015906114315750826001600160a01b0316816001600160a01b031614155b801561144457506114428184610f22565b155b1561146d5760405163a9fbf51f60e01b81526001600160a01b0384166004820152602401610687565b81156114b55783856001600160a01b0316826001600160a01b03167f8c5be1e5ebec7d5bd14f71427d1e84f3dd0314c0f7b2291e5b200ac8c7c3b92560405160405180910390a45b505b5050600090815260046020526040902080546001600160a01b0319166001600160a01b0392909216919091179055565b6000806114f58585856116a6565b90506001600160a01b0381166115525761154d84600880546000838152600960205260408120829055600182018355919091527ff3f7a9fe364faab93b216da50a3214154f22a0a2b415b23a84c8169e8b636ee30155565b611575565b846001600160a01b0316816001600160a01b03161461157557611575818561179f565b6001600160a01b0385166115915761158c84611830565b611003565b846001600160a01b0316816001600160a01b0316146110035761100385856118df565b61065d82826040518060200160405280600081525061192f565b60008072184f03e93ff9f4daa797ed6e38ed64bf6a1f0160401b831061160d5772184f03e93ff9f4daa797ed6e38ed64bf6a1f0160401b830492506040015b6d04ee2d6d415b85acef81000000008310611639576d04ee2d6d415b85acef8100000000830492506020015b662386f26fc10000831061165757662386f26fc10000830492506010015b6305f5e100831061166f576305f5e100830492506008015b612710831061168357612710830492506004015b60648310611695576064830492506002015b600a83106105915760010192915050565b6000828152600260205260408120546001600160a01b03908116908316156116d3576116d3818486611946565b6001600160a01b03811615611711576116f06000856000806113e1565b6001600160a01b038116600090815260036020526040902080546000190190555b6001600160a01b03851615611740576001600160a01b0385166000908152600360205260409020805460010190555b60008481526002602052604080822080546001600160a01b0319166001600160a01b0389811691821790925591518793918516917fddf252ad1be2c89b69c2b068fc378daa952ba7f163c4a11628f55a4df523b3ef91a4949350505050565b60006117aa836107e6565b6000838152600760205260409020549091508082146117fd576001600160a01b03841660009081526006602090815260408083208584528252808320548484528184208190558352600790915290208190555b5060009182526007602090815260408084208490556001600160a01b039094168352600681528383209183525290812055565b60085460009061184290600190611e16565b6000838152600960205260408120546008805493945090928490811061186a5761186a611d71565b90600052602060002001549050806008838154811061188b5761188b611d71565b60009182526020808320909101929092558281526009909152604080822084905585825281205560088054806118c3576118c3611fd3565b6001900381819060005260206000200160009055905550505050565b600060016118ec846107e6565b6118f69190611e16565b6001600160a01b039093166000908152600660209081526040808320868452825280832085905593825260079052919091209190915550565b61193983836119aa565b61077160008484846111d5565b611951838383611a0f565b610771576001600160a01b03831661197f57604051637e27328960e01b815260048101829052602401610687565b60405163177e802f60e01b81526001600160a01b038316600482015260248101829052604401610687565b6001600160a01b0382166119d457604051633250574960e11b815260006004820152602401610687565b60006119e283836000610ff6565b90506001600160a01b03811615610771576040516339e3563760e11b815260006004820152602401610687565b60006001600160a01b038316158015906110035750826001600160a01b0316846001600160a01b03161480611a495750611a498484610f22565b806110035750506000908152600460205260409020546001600160a01b03908116911614919050565b6001600160e01b031981168114610c2957600080fd5b600060208284031215611a9a57600080fd5b8135610f1b81611a72565b60005b83811015611ac0578181015183820152602001611aa8565b50506000910152565b60008151808452611ae1816020860160208601611aa5565b601f01601f19169290920160200192915050565b602081526000610f1b6020830184611ac9565b600060208284031215611b1a57600080fd5b5035919050565b6001600160a01b0381168114610c2957600080fd5b60008060408385031215611b4957600080fd5b8235611b5481611b21565b946020939093013593505050565b600080600060608486031215611b7757600080fd5b8335611b8281611b21565b92506020840135611b9281611b21565b929592945050506040919091013590565b600060208284031215611bb557600080fd5b8135610f1b81611b21565b60008060408385031215611bd357600080fd5b8235611bde81611b21565b915060208301358015158114611bf357600080fd5b809150509250929050565b634e487b7160e01b600052604160045260246000fd5b601f8201601f1916810167ffffffffffffffff81118282101715611c3a57611c3a611bfe565b6040525050565b60008060008060808587031215611c5757600080fd5b8435611c6281611b21565b9350602085810135611c7381611b21565b935060408601359250606086013567ffffffffffffffff80821115611c9757600080fd5b818801915088601f830112611cab57600080fd5b813581811115611cbd57611cbd611bfe565b6040519150611cd5601f8201601f1916850183611c14565b8082528984828501011115611ce957600080fd5b808484018584013760008482840101525080935050505092959194509250565b60008060408385031215611d1c57600080fd5b8235611d2781611b21565b91506020830135611bf381611b21565b600181811c90821680611d4b57607f821691505b602082108103611d6b57634e487b7160e01b600052602260045260246000fd5b50919050565b634e487b7160e01b600052603260045260246000fd5b60208082526022908201527f446f6e6174696f6e206d7573742062652067726561746572207468616e207a65604082015261726f60f01b606082015260800190565b6020808252601a908201527f49742069732061207065726d616e656e7420446f6e6174696f6e000000000000604082015260600190565b634e487b7160e01b600052601160045260246000fd5b8181038181111561059157610591611e00565b600060033d1115611e425760046000803e5060005160e01c5b90565b600060443d1015611e535790565b6040516003193d81016004833e81513d67ffffffffffffffff8160248401118184111715611e8357505050505090565b8285019150815181811115611e9b5750505050505090565b843d8701016020828501011115611eb55750505050505090565b611ec460208286010187611c14565b509095945050505050565b7f416e20756e6b6e6f776e206572726f72206f636375727265643a200000000000815260008251611f0781601b850160208701611aa5565b91909101601b0192915050565b600060208284031215611f2657600080fd5b8151610f1b81611b21565b60008351611f43818460208801611aa5565b835190830190611f57818360208801611aa5565b01949350505050565b600060018201611f7257611f72611e00565b5060010190565b6001600160a01b0385811682528416602082015260408101839052608060608201819052600090611fac90830184611ac9565b9695505050505050565b600060208284031215611fc857600080fd5b8151610f1b81611a72565b634e487b7160e01b600052603160045260246000fdfea2646970667358221220f868eef1ce323ee74fafce558ba17945818c1b484cde4c4e0b66fe305582279964736f6c63430008140033",
  "devdoc": {
    "details": "Main contract for the Givvest platform, which allows users to donate to causes and receive NFT representations of their donations.",
    "errors": {
      "ERC721EnumerableForbiddenBatchMint()": [
        {
          "details": "Batch mint is not allowed."
        }
      ],
      "ERC721IncorrectOwner(address,uint256,address)": [
        {
          "details": "Indicates an error related to the ownership over a particular token. Used in transfers.",
          "params": {
            "owner": "Address of the current owner of a token.",
            "sender": "Address whose tokens are being transferred.",
            "tokenId": "Identifier number of a token."
          }
        }
      ],
      "ERC721InsufficientApproval(address,uint256)": [
        {
          "details": "Indicates a failure with the `operator`s approval. Used in transfers.",
          "params": {
            "operator": "Address that may be allowed to operate on tokens without being their owner.",
            "tokenId": "Identifier number of a token."
          }
        }
      ],
      "ERC721InvalidApprover(address)": [
        {
          "details": "Indicates a failure with the `approver` of a token to be approved. Used in approvals.",
          "params": {
            "approver": "Address initiating an approval operation."
          }
        }
      ],
      "ERC721InvalidOperator(address)": [
        {
          "details": "Indicates a failure with the `operator` to be approved. Used in approvals.",
          "params": {
            "operator": "Address that may be allowed to operate on tokens without being their owner."
          }
        }
      ],
      "ERC721InvalidOwner(address)": [
        {
          "details": "Indicates that an address can't be an owner. For example, `address(0)` is a forbidden owner in EIP-20. Used in balance queries.",
          "params": {
            "owner": "Address of the current owner of a token."
          }
        }
      ],
      "ERC721InvalidReceiver(address)": [
        {
          "details": "Indicates a failure with the token `receiver`. Used in transfers.",
          "params": {
            "receiver": "Address to which tokens are being transferred."
          }
        }
      ],
      "ERC721InvalidSender(address)": [
        {
          "details": "Indicates a failure with the token `sender`. Used in transfers.",
          "params": {
            "sender": "Address whose tokens are being transferred."
          }
        }
      ],
      "ERC721NonexistentToken(uint256)": [
        {
          "details": "Indicates a `tokenId` whose `owner` is the zero address.",
          "params": {
            "tokenId": "Identifier number of a token."
          }
        }
      ],
      "ERC721OutOfBoundsIndex(address,uint256)": [
        {
          "details": "An `owner`'s token query was out of bounds for `index`. NOTE: The owner being `address(0)` indicates a global out of bounds index."
        }
      ],
      "OwnableInvalidOwner(address)": [
        {
          "details": "The owner is not a valid owner account. (eg. `address(0)`)"
        }
      ],
      "OwnableUnauthorizedAccount(address)": [
        {
          "details": "The caller account is not authorized to perform an operation."
        }
      ]
    },
    "events": {
      "Approval(address,address,uint256)": {
        "details": "Emitted when `owner` enables `approved` to manage the `tokenId` token."
      },
      "ApprovalForAll(address,address,bool)": {
        "details": "Emitted when `owner` enables or disables (`approved`) `operator` to manage all of its assets."
      },
      "Transfer(address,address,uint256)": {
        "details": "Emitted when `tokenId` token is transferred from `from` to `to`."
      }
    },
    "kind": "dev",
    "methods": {
      "approve(address,uint256)": {
        "details": "See {IERC721-approve}."
      },
      "balanceOf(address)": {
        "details": "See {IERC721-balanceOf}."
      },
      "burn(uint256)": {
        "details": "Burns `tokenId`. See {ERC721-_burn}. Requirements: - The caller must own `tokenId` or be an approved operator."
      },
      "constructor": {
        "details": "Initializes the contract with the given addresses.",
        "params": {
          "givvestCauseAddress": "The address of the GivvestCause contract.",
          "givvestCoinAddress": "The address of the GivvestCoin contract.",
          "initialOwner": "The address of the initial owner."
        }
      },
      "donateToCause(uint256)": {
        "params": {
          "causeId": "The ID of the cause to donate to."
        }
      },
      "donateToDonationNFT(uint256)": {
        "params": {
          "tokenId": "The ID of the DonationNFT to donate to."
        }
      },
      "getApproved(uint256)": {
        "details": "See {IERC721-getApproved}."
      },
      "isApprovedForAll(address,address)": {
        "details": "See {IERC721-isApprovedForAll}."
      },
      "listForRedemption(uint256)": {
        "params": {
          "tokenId": "The ID of the DonationNFT to list for redemption."
        }
      },
      "makeDonationPermanent(uint256)": {
        "params": {
          "tokenId": "The ID of the DonationNFT to make permanent."
        }
      },
      "name()": {
        "details": "See {IERC721Metadata-name}."
      },
      "owner()": {
        "details": "Returns the address of the current owner."
      },
      "ownerOf(uint256)": {
        "details": "See {IERC721-ownerOf}."
      },
      "renounceOwnership()": {
        "details": "Leaves the contract without owner. It will not be possible to call `onlyOwner` functions. Can only be called by the current owner. NOTE: Renouncing ownership will leave the contract without an owner, thereby disabling any functionality that is only available to the owner."
      },
      "safeTransferFrom(address,address,uint256)": {
        "details": "See {IERC721-safeTransferFrom}."
      },
      "safeTransferFrom(address,address,uint256,bytes)": {
        "details": "See {IERC721-safeTransferFrom}."
      },
      "setApprovalForAll(address,bool)": {
        "details": "See {IERC721-setApprovalForAll}."
      },
      "supportsInterface(bytes4)": {
        "details": "Override for `supportsInterface` function to ensure compatibility with multiple inheritance."
      },
      "symbol()": {
        "details": "See {IERC721Metadata-symbol}."
      },
      "tokenByIndex(uint256)": {
        "details": "See {IERC721Enumerable-tokenByIndex}."
      },
      "tokenOfOwnerByIndex(address,uint256)": {
        "details": "See {IERC721Enumerable-tokenOfOwnerByIndex}."
      },
      "tokenURI(uint256)": {
        "details": "See {IERC721Metadata-tokenURI}."
      },
      "totalSupply()": {
        "details": "See {IERC721Enumerable-totalSupply}."
      },
      "transferFrom(address,address,uint256)": {
        "details": "See {IERC721-transferFrom}."
      },
      "transferOwnership(address)": {
        "details": "Transfers ownership of the contract to a new account (`newOwner`). Can only be called by the current owner."
      }
    },
    "title": "Givvest",
    "version": 1
  },
  "userdoc": {
    "kind": "user",
    "methods": {
      "donateToCause(uint256)": {
        "notice": "Donate to a specific cause and receive a DonationNFT."
      },
      "donateToDonationNFT(uint256)": {
        "notice": "Donate to an existing DonationNFT."
      },
      "listForRedemption(uint256)": {
        "notice": "List a DonationNFT for redemption."
      },
      "makeDonationPermanent(uint256)": {
        "notice": "Make a DonationNFT permanent."
      }
    },
    "version": 1
  },
  "storageLayout": {
    "storage": [
      {
        "astId": 1608,
        "contract": "contracts/Givvest.sol:Givvest",
        "label": "_name",
        "offset": 0,
        "slot": "0",
        "type": "t_string_storage"
      },
      {
        "astId": 1610,
        "contract": "contracts/Givvest.sol:Givvest",
        "label": "_symbol",
        "offset": 0,
        "slot": "1",
        "type": "t_string_storage"
      },
      {
        "astId": 1614,
        "contract": "contracts/Givvest.sol:Givvest",
        "label": "_owners",
        "offset": 0,
        "slot": "2",
        "type": "t_mapping(t_uint256,t_address)"
      },
      {
        "astId": 1618,
        "contract": "contracts/Givvest.sol:Givvest",
        "label": "_balances",
        "offset": 0,
        "slot": "3",
        "type": "t_mapping(t_address,t_uint256)"
      },
      {
        "astId": 1622,
        "contract": "contracts/Givvest.sol:Givvest",
        "label": "_tokenApprovals",
        "offset": 0,
        "slot": "4",
        "type": "t_mapping(t_uint256,t_address)"
      },
      {
        "astId": 1628,
        "contract": "contracts/Givvest.sol:Givvest",
        "label": "_operatorApprovals",
        "offset": 0,
        "slot": "5",
        "type": "t_mapping(t_address,t_mapping(t_address,t_bool))"
      },
      {
        "astId": 2767,
        "contract": "contracts/Givvest.sol:Givvest",
        "label": "_ownedTokens",
        "offset": 0,
        "slot": "6",
        "type": "t_mapping(t_address,t_mapping(t_uint256,t_uint256))"
      },
      {
        "astId": 2771,
        "contract": "contracts/Givvest.sol:Givvest",
        "label": "_ownedTokensIndex",
        "offset": 0,
        "slot": "7",
        "type": "t_mapping(t_uint256,t_uint256)"
      },
      {
        "astId": 2774,
        "contract": "contracts/Givvest.sol:Givvest",
        "label": "_allTokens",
        "offset": 0,
        "slot": "8",
        "type": "t_array(t_uint256)dyn_storage"
      },
      {
        "astId": 2778,
        "contract": "contracts/Givvest.sol:Givvest",
        "label": "_allTokensIndex",
        "offset": 0,
        "slot": "9",
        "type": "t_mapping(t_uint256,t_uint256)"
      },
      {
        "astId": 387,
        "contract": "contracts/Givvest.sol:Givvest",
        "label": "_owner",
        "offset": 0,
        "slot": "10",
        "type": "t_address"
      },
      {
        "astId": 6715,
        "contract": "contracts/Givvest.sol:Givvest",
        "label": "givvestCauseContract",
        "offset": 0,
        "slot": "11",
        "type": "t_contract(IGivvestCause)6694"
      },
      {
        "astId": 6718,
        "contract": "contracts/Givvest.sol:Givvest",
        "label": "givvestCoinContract",
        "offset": 0,
        "slot": "12",
        "type": "t_contract(IGivvestCoin)6703"
      },
      {
        "astId": 6727,
        "contract": "contracts/Givvest.sol:Givvest",
        "label": "_nextTokenId",
        "offset": 0,
        "slot": "13",
        "type": "t_uint256"
      },
      {
        "astId": 6732,
        "contract": "contracts/Givvest.sol:Givvest",
        "label": "donationNFTs",
        "offset": 0,
        "slot": "14",
        "type": "t_mapping(t_uint256,t_struct(DonationNFT)6725_storage)"
      },
      {
        "astId": 6736,
        "contract": "contracts/Givvest.sol:Givvest",
        "label": "isPermanent",
        "offset": 0,
        "slot": "15",
        "type": "t_mapping(t_uint256,t_bool)"
      }
    ],
    "types": {
      "t_address": {
        "encoding": "inplace",
        "label": "address",
        "numberOfBytes": "20"
      },
      "t_array(t_uint256)dyn_storage": {
        "base": "t_uint256",
        "encoding": "dynamic_array",
        "label": "uint256[]",
        "numberOfBytes": "32"
      },
      "t_bool": {
        "encoding": "inplace",
        "label": "bool",
        "numberOfBytes": "1"
      },
      "t_contract(IGivvestCause)6694": {
        "encoding": "inplace",
        "label": "contract IGivvestCause",
        "numberOfBytes": "20"
      },
      "t_contract(IGivvestCoin)6703": {
        "encoding": "inplace",
        "label": "contract IGivvestCoin",
        "numberOfBytes": "20"
      },
      "t_mapping(t_address,t_bool)": {
        "encoding": "mapping",
        "key": "t_address",
        "label": "mapping(address => bool)",
        "numberOfBytes": "32",
        "value": "t_bool"
      },
      "t_mapping(t_address,t_mapping(t_address,t_bool))": {
        "encoding": "mapping",
        "key": "t_address",
        "label": "mapping(address => mapping(address => bool))",
        "numberOfBytes": "32",
        "value": "t_mapping(t_address,t_bool)"
      },
      "t_mapping(t_address,t_mapping(t_uint256,t_uint256))": {
        "encoding": "mapping",
        "key": "t_address",
        "label": "mapping(address => mapping(uint256 => uint256))",
        "numberOfBytes": "32",
        "value": "t_mapping(t_uint256,t_uint256)"
      },
      "t_mapping(t_address,t_uint256)": {
        "encoding": "mapping",
        "key": "t_address",
        "label": "mapping(address => uint256)",
        "numberOfBytes": "32",
        "value": "t_uint256"
      },
      "t_mapping(t_uint256,t_address)": {
        "encoding": "mapping",
        "key": "t_uint256",
        "label": "mapping(uint256 => address)",
        "numberOfBytes": "32",
        "value": "t_address"
      },
      "t_mapping(t_uint256,t_bool)": {
        "encoding": "mapping",
        "key": "t_uint256",
        "label": "mapping(uint256 => bool)",
        "numberOfBytes": "32",
        "value": "t_bool"
      },
      "t_mapping(t_uint256,t_struct(DonationNFT)6725_storage)": {
        "encoding": "mapping",
        "key": "t_uint256",
        "label": "mapping(uint256 => struct Givvest.DonationNFT)",
        "numberOfBytes": "32",
        "value": "t_struct(DonationNFT)6725_storage"
      },
      "t_mapping(t_uint256,t_uint256)": {
        "encoding": "mapping",
        "key": "t_uint256",
        "label": "mapping(uint256 => uint256)",
        "numberOfBytes": "32",
        "value": "t_uint256"
      },
      "t_string_storage": {
        "encoding": "bytes",
        "label": "string",
        "numberOfBytes": "32"
      },
      "t_struct(DonationNFT)6725_storage": {
        "encoding": "inplace",
        "label": "struct Givvest.DonationNFT",
        "members": [
          {
            "astId": 6720,
            "contract": "contracts/Givvest.sol:Givvest",
            "label": "amount",
            "offset": 0,
            "slot": "0",
            "type": "t_uint256"
          },
          {
            "astId": 6722,
            "contract": "contracts/Givvest.sol:Givvest",
            "label": "causeId",
            "offset": 0,
            "slot": "1",
            "type": "t_uint256"
          },
          {
            "astId": 6724,
            "contract": "contracts/Givvest.sol:Givvest",
            "label": "listedForRedemption",
            "offset": 0,
            "slot": "2",
            "type": "t_bool"
          }
        ],
        "numberOfBytes": "96"
      },
      "t_uint256": {
        "encoding": "inplace",
        "label": "uint256",
        "numberOfBytes": "32"
      }
    }
  }
}