{
  "address": "0xb1EEa80fe927da9e961C92336C73735BE25709aF",
  "abi": [
    {
      "inputs": [
        {
          "internalType": "address",
          "name": "_usde",
          "type": "address"
        },
        {
          "internalType": "address",
          "name": "_susde",
          "type": "address"
        },
        {
          "internalType": "address",
          "name": "_givvest",
          "type": "address"
        }
      ],
      "stateMutability": "nonpayable",
      "type": "constructor"
    },
    {
      "inputs": [
        {
          "internalType": "address",
          "name": "owner",
          "type": "address"
        }
      ],
      "name": "OwnableInvalidOwner",
      "type": "error"
    },
    {
      "inputs": [
        {
          "internalType": "address",
          "name": "account",
          "type": "address"
        }
      ],
      "name": "OwnableUnauthorizedAccount",
      "type": "error"
    },
    {
      "inputs": [],
      "name": "ReentrancyGuardReentrantCall",
      "type": "error"
    },
    {
      "inputs": [
        {
          "internalType": "address",
          "name": "spender",
          "type": "address"
        },
        {
          "internalType": "uint256",
          "name": "currentAllowance",
          "type": "uint256"
        },
        {
          "internalType": "uint256",
          "name": "requestedDecrease",
          "type": "uint256"
        }
      ],
      "name": "SafeERC20FailedDecreaseAllowance",
      "type": "error"
    },
    {
      "inputs": [
        {
          "internalType": "address",
          "name": "token",
          "type": "address"
        }
      ],
      "name": "SafeERC20FailedOperation",
      "type": "error"
    },
    {
      "anonymous": false,
      "inputs": [
        {
          "indexed": true,
          "internalType": "address",
          "name": "user",
          "type": "address"
        },
        {
          "indexed": false,
          "internalType": "uint256",
          "name": "cooldownEnd",
          "type": "uint256"
        }
      ],
      "name": "CooldownStarted",
      "type": "event"
    },
    {
      "anonymous": false,
      "inputs": [
        {
          "indexed": true,
          "internalType": "address",
          "name": "user",
          "type": "address"
        },
        {
          "indexed": false,
          "internalType": "uint256",
          "name": "amount",
          "type": "uint256"
        }
      ],
      "name": "Deposited",
      "type": "event"
    },
    {
      "anonymous": false,
      "inputs": [
        {
          "indexed": true,
          "internalType": "address",
          "name": "previousOwner",
          "type": "address"
        },
        {
          "indexed": true,
          "internalType": "address",
          "name": "newOwner",
          "type": "address"
        }
      ],
      "name": "OwnershipTransferred",
      "type": "event"
    },
    {
      "anonymous": false,
      "inputs": [
        {
          "indexed": true,
          "internalType": "address",
          "name": "user",
          "type": "address"
        },
        {
          "indexed": false,
          "internalType": "uint256",
          "name": "depositAmount",
          "type": "uint256"
        },
        {
          "indexed": false,
          "internalType": "uint256",
          "name": "yieldAmount",
          "type": "uint256"
        },
        {
          "indexed": false,
          "internalType": "uint256",
          "name": "causeId",
          "type": "uint256"
        }
      ],
      "name": "Withdrawn",
      "type": "event"
    },
    {
      "inputs": [
        {
          "internalType": "uint256",
          "name": "amount",
          "type": "uint256"
        }
      ],
      "name": "deposit",
      "outputs": [],
      "stateMutability": "nonpayable",
      "type": "function"
    },
    {
      "inputs": [
        {
          "internalType": "address",
          "name": "user",
          "type": "address"
        }
      ],
      "name": "getStakeInfo",
      "outputs": [
        {
          "internalType": "uint256",
          "name": "depositAmount",
          "type": "uint256"
        },
        {
          "internalType": "uint256",
          "name": "currentValue",
          "type": "uint256"
        },
        {
          "internalType": "uint256",
          "name": "yieldAmount",
          "type": "uint256"
        },
        {
          "internalType": "bool",
          "name": "cooldownStarted",
          "type": "bool"
        },
        {
          "internalType": "uint256",
          "name": "cooldownEnd",
          "type": "uint256"
        }
      ],
      "stateMutability": "view",
      "type": "function"
    },
    {
      "inputs": [],
      "name": "givvest",
      "outputs": [
        {
          "internalType": "contract IGivvest",
          "name": "",
          "type": "address"
        }
      ],
      "stateMutability": "view",
      "type": "function"
    },
    {
      "inputs": [],
      "name": "owner",
      "outputs": [
        {
          "internalType": "address",
          "name": "",
          "type": "address"
        }
      ],
      "stateMutability": "view",
      "type": "function"
    },
    {
      "inputs": [],
      "name": "renounceOwnership",
      "outputs": [],
      "stateMutability": "nonpayable",
      "type": "function"
    },
    {
      "inputs": [
        {
          "internalType": "address",
          "name": "",
          "type": "address"
        }
      ],
      "name": "stakes",
      "outputs": [
        {
          "internalType": "uint256",
          "name": "depositAmount",
          "type": "uint256"
        },
        {
          "internalType": "uint256",
          "name": "shares",
          "type": "uint256"
        },
        {
          "internalType": "uint256",
          "name": "cooldownEnd",
          "type": "uint256"
        },
        {
          "internalType": "bool",
          "name": "cooldownStarted",
          "type": "bool"
        }
      ],
      "stateMutability": "view",
      "type": "function"
    },
    {
      "inputs": [],
      "name": "startCooldown",
      "outputs": [],
      "stateMutability": "nonpayable",
      "type": "function"
    },
    {
      "inputs": [],
      "name": "susde",
      "outputs": [
        {
          "internalType": "contract ISUSDe",
          "name": "",
          "type": "address"
        }
      ],
      "stateMutability": "view",
      "type": "function"
    },
    {
      "inputs": [
        {
          "internalType": "address",
          "name": "newOwner",
          "type": "address"
        }
      ],
      "name": "transferOwnership",
      "outputs": [],
      "stateMutability": "nonpayable",
      "type": "function"
    },
    {
      "inputs": [],
      "name": "usde",
      "outputs": [
        {
          "internalType": "contract IERC20",
          "name": "",
          "type": "address"
        }
      ],
      "stateMutability": "view",
      "type": "function"
    },
    {
      "inputs": [
        {
          "internalType": "uint256",
          "name": "causeId",
          "type": "uint256"
        }
      ],
      "name": "withdrawAndDonate",
      "outputs": [],
      "stateMutability": "nonpayable",
      "type": "function"
    }
  ],
  "transactionHash": "0x3706cb48b2a608dcc8f113348e82f5325500740b454deb21b810487b4e9ce4d0",
  "args": [
    "0xf805ce4F96e0EdD6f0b6cd4be22B34b92373d696",
    "0x1B6877c6Dac4b6De4c5817925DC40E2BfdAFc01b",
    "0xD44a867df61dde1B0108C69cDCC675d1c369dB76"
  ],
  "numDeployments": 1,
  "solcInputHash": "ae8e4605bb3432dffba1f3ee92fdd67b",
  "bytecode": "0x60e06040523480156200001157600080fd5b50604051620014ff380380620014ff833981016040819052620000349162000337565b600160005533806200006157604051631e4fbdf760e01b8152600060048201526024015b60405180910390fd5b6200006c81620000a1565b506001600160a01b03808416608081905283821660a05290821660c052620000989083600019620000f3565b505050620003bd565b600180546001600160a01b038381166001600160a01b0319831681179093556040519116919082907f8be0079c531659141344cd1fd0a4f28419497f9722a3daafe3b4186f6b6457e090600090a35050565b604051636eb1769f60e11b81523060048201526001600160a01b0383811660248301526000919085169063dd62ed3e90604401602060405180830381865afa15801562000144573d6000803e3d6000fd5b505050506040513d601f19601f820116820180604052508101906200016a919062000381565b90506200018484846200017e85856200039b565b6200018a565b50505050565b604080516001600160a01b038416602482015260448082018490528251808303909101815260649091019091526020810180516001600160e01b0390811663095ea7b360e01b17909152620001e490859083906200025016565b6200018457604080516001600160a01b038516602482015260006044808301919091528251808303909101815260649091019091526020810180516001600160e01b0390811663095ea7b360e01b1790915262000244918691620002a416565b620001848482620002a4565b6000806000806020600086516020880160008a5af192503d91506000519050828015620002985750811562000289578060011462000298565b6000866001600160a01b03163b115b93505050505b92915050565b600080602060008451602086016000885af180620002c8576040513d6000823e3d81fd5b50506000513d91508115620002e2578060011415620002ef565b6001600160a01b0384163b155b156200018457604051635274afe760e01b81526001600160a01b038516600482015260240162000058565b80516001600160a01b03811681146200033257600080fd5b919050565b6000806000606084860312156200034d57600080fd5b62000358846200031a565b925062000368602085016200031a565b915062000378604085016200031a565b90509250925092565b6000602082840312156200039457600080fd5b5051919050565b808201808211156200029e57634e487b7160e01b600052601160045260246000fd5b60805160a05160c0516110b26200044d600039600081816101ed01528181610a4301528181610a8b0152610b2001526000818160b3015281816103040152818161039501528181610422015281816105f70152818161074d015281816108c6015261097201526000818160f7015281816105b0015281816109e501528181610a210152610afc01526110b26000f3fe608060405234801561001057600080fd5b50600436106100a95760003560e01c80638da5cb5b116100715780638da5cb5b14610187578063b6b55f2514610198578063c3453153146101ab578063c73e8bb7146101e8578063de17376b1461020f578063f2fde38b1461022257600080fd5b8063032988da146100ae5780630fd761e0146100f257806316934fc414610119578063680ff45814610175578063715018a61461017f575b600080fd5b6100d57f000000000000000000000000000000000000000000000000000000000000000081565b6040516001600160a01b0390911681526020015b60405180910390f35b6100d57f000000000000000000000000000000000000000000000000000000000000000081565b610153610127366004610fde565b600260208190526000918252604090912080546001820154928201546003909201549092919060ff1684565b60408051948552602085019390935291830152151560608201526080016100e9565b61017d610235565b005b61017d6104e5565b6001546001600160a01b03166100d5565b61017d6101a636600461100e565b6104f7565b6101be6101b9366004610fde565b610709565b6040805195865260208601949094529284019190915215156060830152608082015260a0016100e9565b6100d57f000000000000000000000000000000000000000000000000000000000000000081565b61017d61021d36600461100e565b6107f9565b61017d610230366004610fde565b610bbe565b61023d610bf9565b33600090815260026020526040902080546102905760405162461bcd60e51b815260206004820152600e60248201526d139bc81cdd185ad948199bdd5b9960921b60448201526064015b60405180910390fd5b600381015460ff16156102e55760405162461bcd60e51b815260206004820152601860248201527f436f6f6c646f776e20616c7265616479207374617274656400000000000000006044820152606401610287565b60018101546040516303d1689d60e11b81526000916001600160a01b037f000000000000000000000000000000000000000000000000000000000000000016916307a2d13a9161033b9160040190815260200190565b602060405180830381865afa158015610358573d6000803e3d6000fd5b505050506040513d601f19601f8201168201806040525081019061037c9190611027565b60405163cdac52ed60e01b8152600481018290529091507f00000000000000000000000000000000000000000000000000000000000000006001600160a01b03169063cdac52ed90602401600060405180830381600087803b1580156103e157600080fd5b505af11580156103f5573d6000803e3d6000fd5b50505060038301805460ff191660011790555060408051633526931560e01b815290516001600160a01b037f0000000000000000000000000000000000000000000000000000000000000000169163352693159160048083019260209291908290030181865afa15801561046d573d6000803e3d6000fd5b505050506040513d601f19601f820116820180604052508101906104919190611027565b61049b9042611056565b6002830181905560405190815233907fc0c658beb1b87e79725d0a9231c6980594073a2bbbc652a9a2705734bf26ff1b9060200160405180910390a250506104e36001600055565b565b6104ed610c23565b6104e36000610c50565b6104ff610bf9565b6000811161054f5760405162461bcd60e51b815260206004820152601d60248201527f416d6f756e74206d7573742062652067726561746572207468616e20300000006044820152606401610287565b33600090815260026020526040902054156105a35760405162461bcd60e51b8152602060048201526014602482015273416c726561647920686176652061207374616b6560601b6044820152606401610287565b6105d86001600160a01b037f000000000000000000000000000000000000000000000000000000000000000016333084610ca2565b604051636e553f6560e01b8152600481018290523060248201526000907f00000000000000000000000000000000000000000000000000000000000000006001600160a01b031690636e553f65906044016020604051808303816000875af1158015610648573d6000803e3d6000fd5b505050506040513d601f19601f8201168201806040525081019061066c9190611027565b604080516080810182528481526020808201848152600083850181815260608501828152338084526002808752938890209651875593516001870155905191850191909155516003909301805460ff1916931515939093179092559151858152929350917f2da466a7b24304f47e87fa2e1e5a81b9831ce54fec19055ce277ca2f39ba42c4910160405180910390a2506107066001600055565b50565b6001600160a01b03811660009081526002602052604081208054919081908190819085156107ef5760018101546040516303d1689d60e11b815260048101919091527f00000000000000000000000000000000000000000000000000000000000000006001600160a01b0316906307a2d13a90602401602060405180830381865afa15801561079c573d6000803e3d6000fd5b505050506040513d601f19601f820116820180604052508101906107c09190611027565b94508585116107d05760006107da565b6107da8686611069565b6003820154600283015491955060ff16935091505b5091939590929450565b610801610bf9565b336000908152600260205260409020600381015460ff1661085b5760405162461bcd60e51b815260206004820152601460248201527310dbdbdb191bdddb881b9bdd081cdd185c9d195960621b6044820152606401610287565b80600201544210156108a75760405162461bcd60e51b815260206004820152601560248201527410dbdbdb191bdddb881b9bdd08199a5b9a5cda1959605a1b6044820152606401610287565b60018101546040516303d1689d60e11b81526000916001600160a01b037f000000000000000000000000000000000000000000000000000000000000000016916307a2d13a916108fd9160040190815260200190565b602060405180830381865afa15801561091a573d6000803e3d6000fd5b505050506040513d601f19601f8201168201806040525081019061093e9190611027565b90506000826000015482111561095d57825461095a9083611069565b90505b60405163f2888dbb60e01b81523060048201527f00000000000000000000000000000000000000000000000000000000000000006001600160a01b03169063f2888dbb90602401600060405180830381600087803b1580156109be57600080fd5b505af11580156109d2573d6000803e3d6000fd5b50508454610a0e92506001600160a01b037f00000000000000000000000000000000000000000000000000000000000000001691503390610d0f565b8015610b4557610a686001600160a01b037f0000000000000000000000000000000000000000000000000000000000000000167f000000000000000000000000000000000000000000000000000000000000000083610d45565b604051634140e5ed60e11b815233600482015260248101829052604481018590527f00000000000000000000000000000000000000000000000000000000000000006001600160a01b031690638281cbda90606401600060405180830381600087803b158015610ad757600080fd5b505af1158015610aeb573d6000803e3d6000fd5b50610b459250506001600160a01b037f00000000000000000000000000000000000000000000000000000000000000001690507f000000000000000000000000000000000000000000000000000000000000000083610dcf565b82546040805191825260208201839052810185905233907f75e161b3e824b114fc1a33274bd7091918dd4e639cede50b78b15a4eea956a219060600160405180910390a2505033600090815260026020819052604082208281556001808201849055918101839055600301805460ff1916905590555050565b610bc6610c23565b6001600160a01b038116610bf057604051631e4fbdf760e01b815260006004820152602401610287565b61070681610c50565b600260005403610c1c57604051633ee5aeb560e01b815260040160405180910390fd5b6002600055565b6001546001600160a01b031633146104e35760405163118cdaa760e01b8152336004820152602401610287565b600180546001600160a01b038381166001600160a01b0319831681179093556040519116919082907f8be0079c531659141344cd1fd0a4f28419497f9722a3daafe3b4186f6b6457e090600090a35050565b6040516001600160a01b038481166024830152838116604483015260648201839052610d099186918216906323b872dd906084015b604051602081830303815290604052915060e01b6020820180516001600160e01b038381831617835250505050610e8c565b50505050565b6040516001600160a01b03838116602483015260448201839052610d4091859182169063a9059cbb90606401610cd7565b505050565b604051636eb1769f60e11b81523060048201526001600160a01b0383811660248301526000919085169063dd62ed3e90604401602060405180830381865afa158015610d95573d6000803e3d6000fd5b505050506040513d601f19601f82011682018060405250810190610db99190611027565b9050610d098484610dca8585611056565b610efd565b604051636eb1769f60e11b81523060048201526001600160a01b0383811660248301526000919085169063dd62ed3e90604401602060405180830381865afa158015610e1f573d6000803e3d6000fd5b505050506040513d601f19601f82011682018060405250810190610e439190611027565b905081811015610e7f5760405163e570110f60e01b81526001600160a01b03841660048201526024810182905260448101839052606401610287565b610d098484848403610efd565b600080602060008451602086016000885af180610eaf576040513d6000823e3d81fd5b50506000513d91508115610ec7578060011415610ed4565b6001600160a01b0384163b155b15610d0957604051635274afe760e01b81526001600160a01b0385166004820152602401610287565b604080516001600160a01b038416602482015260448082018490528251808303909101815260649091019091526020810180516001600160e01b031663095ea7b360e01b179052610f4e8482610f8d565b610d09576040516001600160a01b03848116602483015260006044830152610f8391869182169063095ea7b390606401610cd7565b610d098482610e8c565b6000806000806020600086516020880160008a5af192503d91506000519050828015610fd257508115610fc35780600114610fd2565b6000866001600160a01b03163b115b93505050505b92915050565b600060208284031215610ff057600080fd5b81356001600160a01b038116811461100757600080fd5b9392505050565b60006020828403121561102057600080fd5b5035919050565b60006020828403121561103957600080fd5b5051919050565b634e487b7160e01b600052601160045260246000fd5b80820180821115610fd857610fd8611040565b81810381811115610fd857610fd861104056fea2646970667358221220297e609cf70ca1b8e53e1b9886fc4f7cdb47e49197025c3449de26153c63cb1864736f6c63430008140033",
  "devdoc": {
    "errors": {
      "OwnableInvalidOwner(address)": [
        {
          "details": "The owner is not a valid owner account. (eg. `address(0)`)"
        }
      ],
      "OwnableUnauthorizedAccount(address)": [
        {
          "details": "The caller account is not authorized to perform an operation."
        }
      ],
      "ReentrancyGuardReentrantCall()": [
        {
          "details": "Unauthorized reentrant call."
        }
      ],
      "SafeERC20FailedDecreaseAllowance(address,uint256,uint256)": [
        {
          "details": "Indicates a failed `decreaseAllowance` request."
        }
      ],
      "SafeERC20FailedOperation(address)": [
        {
          "details": "An operation with an ERC-20 token failed."
        }
      ]
    },
    "kind": "dev",
    "methods": {
      "owner()": {
        "details": "Returns the address of the current owner."
      },
      "renounceOwnership()": {
        "details": "Leaves the contract without owner. It will not be possible to call `onlyOwner` functions. Can only be called by the current owner. NOTE: Renouncing ownership will leave the contract without an owner, thereby disabling any functionality that is only available to the owner."
      },
      "transferOwnership(address)": {
        "details": "Transfers ownership of the contract to a new account (`newOwner`). Can only be called by the current owner."
      }
    },
    "version": 1
  },
  "userdoc": {
    "kind": "user",
    "methods": {},
    "version": 1
  },
  "storageLayout": {
    "storage": [
      {
        "astId": 1048,
        "contract": "contracts/YieldDonation.sol:YieldDonation",
        "label": "_status",
        "offset": 0,
        "slot": "0",
        "type": "t_uint256"
      },
      {
        "astId": 8,
        "contract": "contracts/YieldDonation.sol:YieldDonation",
        "label": "_owner",
        "offset": 0,
        "slot": "1",
        "type": "t_address"
      },
      {
        "astId": 1197,
        "contract": "contracts/YieldDonation.sol:YieldDonation",
        "label": "stakes",
        "offset": 0,
        "slot": "2",
        "type": "t_mapping(t_address,t_struct(Stake)1183_storage)"
      }
    ],
    "types": {
      "t_address": {
        "encoding": "inplace",
        "label": "address",
        "numberOfBytes": "20"
      },
      "t_bool": {
        "encoding": "inplace",
        "label": "bool",
        "numberOfBytes": "1"
      },
      "t_mapping(t_address,t_struct(Stake)1183_storage)": {
        "encoding": "mapping",
        "key": "t_address",
        "label": "mapping(address => struct YieldDonation.Stake)",
        "numberOfBytes": "32",
        "value": "t_struct(Stake)1183_storage"
      },
      "t_struct(Stake)1183_storage": {
        "encoding": "inplace",
        "label": "struct YieldDonation.Stake",
        "members": [
          {
            "astId": 1176,
            "contract": "contracts/YieldDonation.sol:YieldDonation",
            "label": "depositAmount",
            "offset": 0,
            "slot": "0",
            "type": "t_uint256"
          },
          {
            "astId": 1178,
            "contract": "contracts/YieldDonation.sol:YieldDonation",
            "label": "shares",
            "offset": 0,
            "slot": "1",
            "type": "t_uint256"
          },
          {
            "astId": 1180,
            "contract": "contracts/YieldDonation.sol:YieldDonation",
            "label": "cooldownEnd",
            "offset": 0,
            "slot": "2",
            "type": "t_uint256"
          },
          {
            "astId": 1182,
            "contract": "contracts/YieldDonation.sol:YieldDonation",
            "label": "cooldownStarted",
            "offset": 0,
            "slot": "3",
            "type": "t_bool"
          }
        ],
        "numberOfBytes": "128"
      },
      "t_uint256": {
        "encoding": "inplace",
        "label": "uint256",
        "numberOfBytes": "32"
      }
    }
  }
}